{
  "contractName": "CyberDeck",
  "abi": [
    {
      "inputs": [
        {
          "internalType": "address payable",
          "name": "treasuryAddress",
          "type": "address"
        }
      ],
      "stateMutability": "nonpayable",
      "type": "constructor"
    },
    {
      "anonymous": false,
      "inputs": [
        {
          "indexed": true,
          "internalType": "address",
          "name": "owner",
          "type": "address"
        },
        {
          "indexed": true,
          "internalType": "address",
          "name": "approved",
          "type": "address"
        },
        {
          "indexed": true,
          "internalType": "uint256",
          "name": "tokenId",
          "type": "uint256"
        }
      ],
      "name": "Approval",
      "type": "event"
    },
    {
      "anonymous": false,
      "inputs": [
        {
          "indexed": true,
          "internalType": "address",
          "name": "owner",
          "type": "address"
        },
        {
          "indexed": true,
          "internalType": "address",
          "name": "operator",
          "type": "address"
        },
        {
          "indexed": false,
          "internalType": "bool",
          "name": "approved",
          "type": "bool"
        }
      ],
      "name": "ApprovalForAll",
      "type": "event"
    },
    {
      "anonymous": false,
      "inputs": [
        {
          "indexed": false,
          "internalType": "address",
          "name": "account",
          "type": "address"
        }
      ],
      "name": "Paused",
      "type": "event"
    },
    {
      "anonymous": false,
      "inputs": [
        {
          "indexed": true,
          "internalType": "bytes32",
          "name": "role",
          "type": "bytes32"
        },
        {
          "indexed": true,
          "internalType": "bytes32",
          "name": "previousAdminRole",
          "type": "bytes32"
        },
        {
          "indexed": true,
          "internalType": "bytes32",
          "name": "newAdminRole",
          "type": "bytes32"
        }
      ],
      "name": "RoleAdminChanged",
      "type": "event"
    },
    {
      "anonymous": false,
      "inputs": [
        {
          "indexed": true,
          "internalType": "bytes32",
          "name": "role",
          "type": "bytes32"
        },
        {
          "indexed": true,
          "internalType": "address",
          "name": "account",
          "type": "address"
        },
        {
          "indexed": true,
          "internalType": "address",
          "name": "sender",
          "type": "address"
        }
      ],
      "name": "RoleGranted",
      "type": "event"
    },
    {
      "anonymous": false,
      "inputs": [
        {
          "indexed": true,
          "internalType": "bytes32",
          "name": "role",
          "type": "bytes32"
        },
        {
          "indexed": true,
          "internalType": "address",
          "name": "account",
          "type": "address"
        },
        {
          "indexed": true,
          "internalType": "address",
          "name": "sender",
          "type": "address"
        }
      ],
      "name": "RoleRevoked",
      "type": "event"
    },
    {
      "anonymous": false,
      "inputs": [
        {
          "indexed": true,
          "internalType": "address",
          "name": "from",
          "type": "address"
        },
        {
          "indexed": true,
          "internalType": "address",
          "name": "to",
          "type": "address"
        },
        {
          "indexed": true,
          "internalType": "uint256",
          "name": "tokenId",
          "type": "uint256"
        }
      ],
      "name": "Transfer",
      "type": "event"
    },
    {
      "anonymous": false,
      "inputs": [
        {
          "indexed": false,
          "internalType": "address",
          "name": "account",
          "type": "address"
        }
      ],
      "name": "Unpaused",
      "type": "event"
    },
    {
      "inputs": [],
      "name": "DEFAULT_ADMIN_ROLE",
      "outputs": [
        {
          "internalType": "bytes32",
          "name": "",
          "type": "bytes32"
        }
      ],
      "stateMutability": "view",
      "type": "function",
      "constant": true
    },
    {
      "inputs": [],
      "name": "MINTER_ROLE",
      "outputs": [
        {
          "internalType": "bytes32",
          "name": "",
          "type": "bytes32"
        }
      ],
      "stateMutability": "view",
      "type": "function",
      "constant": true
    },
    {
      "inputs": [],
      "name": "PAUSER_ROLE",
      "outputs": [
        {
          "internalType": "bytes32",
          "name": "",
          "type": "bytes32"
        }
      ],
      "stateMutability": "view",
      "type": "function",
      "constant": true
    },
    {
      "inputs": [],
      "name": "_tokenIds",
      "outputs": [
        {
          "internalType": "uint256",
          "name": "_value",
          "type": "uint256"
        }
      ],
      "stateMutability": "view",
      "type": "function",
      "constant": true
    },
    {
      "inputs": [
        {
          "internalType": "address",
          "name": "",
          "type": "address"
        }
      ],
      "name": "allowedNfts",
      "outputs": [
        {
          "internalType": "bool",
          "name": "",
          "type": "bool"
        }
      ],
      "stateMutability": "view",
      "type": "function",
      "constant": true
    },
    {
      "inputs": [
        {
          "internalType": "address",
          "name": "to",
          "type": "address"
        },
        {
          "internalType": "uint256",
          "name": "tokenId",
          "type": "uint256"
        }
      ],
      "name": "approve",
      "outputs": [],
      "stateMutability": "nonpayable",
      "type": "function"
    },
    {
      "inputs": [
        {
          "internalType": "address",
          "name": "owner",
          "type": "address"
        }
      ],
      "name": "balanceOf",
      "outputs": [
        {
          "internalType": "uint256",
          "name": "",
          "type": "uint256"
        }
      ],
      "stateMutability": "view",
      "type": "function",
      "constant": true
    },
    {
      "inputs": [
        {
          "internalType": "uint256",
          "name": "tokenId",
          "type": "uint256"
        }
      ],
      "name": "burn",
      "outputs": [],
      "stateMutability": "nonpayable",
      "type": "function"
    },
    {
      "inputs": [
        {
          "internalType": "uint256",
          "name": "tokenId",
          "type": "uint256"
        }
      ],
      "name": "getApproved",
      "outputs": [
        {
          "internalType": "address",
          "name": "",
          "type": "address"
        }
      ],
      "stateMutability": "view",
      "type": "function",
      "constant": true
    },
    {
      "inputs": [
        {
          "internalType": "bytes32",
          "name": "role",
          "type": "bytes32"
        }
      ],
      "name": "getRoleAdmin",
      "outputs": [
        {
          "internalType": "bytes32",
          "name": "",
          "type": "bytes32"
        }
      ],
      "stateMutability": "view",
      "type": "function",
      "constant": true
    },
    {
      "inputs": [
        {
          "internalType": "bytes32",
          "name": "role",
          "type": "bytes32"
        },
        {
          "internalType": "uint256",
          "name": "index",
          "type": "uint256"
        }
      ],
      "name": "getRoleMember",
      "outputs": [
        {
          "internalType": "address",
          "name": "",
          "type": "address"
        }
      ],
      "stateMutability": "view",
      "type": "function",
      "constant": true
    },
    {
      "inputs": [
        {
          "internalType": "bytes32",
          "name": "role",
          "type": "bytes32"
        }
      ],
      "name": "getRoleMemberCount",
      "outputs": [
        {
          "internalType": "uint256",
          "name": "",
          "type": "uint256"
        }
      ],
      "stateMutability": "view",
      "type": "function",
      "constant": true
    },
    {
      "inputs": [
        {
          "internalType": "bytes32",
          "name": "role",
          "type": "bytes32"
        },
        {
          "internalType": "address",
          "name": "account",
          "type": "address"
        }
      ],
      "name": "grantRole",
      "outputs": [],
      "stateMutability": "nonpayable",
      "type": "function"
    },
    {
      "inputs": [],
      "name": "hasMaxSupply",
      "outputs": [
        {
          "internalType": "bool",
          "name": "",
          "type": "bool"
        }
      ],
      "stateMutability": "view",
      "type": "function",
      "constant": true
    },
    {
      "inputs": [
        {
          "internalType": "bytes32",
          "name": "role",
          "type": "bytes32"
        },
        {
          "internalType": "address",
          "name": "account",
          "type": "address"
        }
      ],
      "name": "hasRole",
      "outputs": [
        {
          "internalType": "bool",
          "name": "",
          "type": "bool"
        }
      ],
      "stateMutability": "view",
      "type": "function",
      "constant": true
    },
    {
      "inputs": [
        {
          "internalType": "address",
          "name": "owner",
          "type": "address"
        },
        {
          "internalType": "address",
          "name": "operator",
          "type": "address"
        }
      ],
      "name": "isApprovedForAll",
      "outputs": [
        {
          "internalType": "bool",
          "name": "",
          "type": "bool"
        }
      ],
      "stateMutability": "view",
      "type": "function",
      "constant": true
    },
    {
      "inputs": [],
      "name": "isExclusive",
      "outputs": [
        {
          "internalType": "bool",
          "name": "",
          "type": "bool"
        }
      ],
      "stateMutability": "view",
      "type": "function",
      "constant": true
    },
    {
      "inputs": [],
      "name": "maxSupply",
      "outputs": [
        {
          "internalType": "uint256",
          "name": "",
          "type": "uint256"
        }
      ],
      "stateMutability": "view",
      "type": "function",
      "constant": true
    },
    {
      "inputs": [
        {
          "internalType": "address",
          "name": "to",
          "type": "address"
        }
      ],
      "name": "mint",
      "outputs": [],
      "stateMutability": "nonpayable",
      "type": "function"
    },
    {
      "inputs": [
        {
          "internalType": "address",
          "name": "",
          "type": "address"
        },
        {
          "internalType": "uint256",
          "name": "",
          "type": "uint256"
        }
      ],
      "name": "mintedStatus",
      "outputs": [
        {
          "internalType": "bool",
          "name": "",
          "type": "bool"
        }
      ],
      "stateMutability": "view",
      "type": "function",
      "constant": true
    },
    {
      "inputs": [],
      "name": "name",
      "outputs": [
        {
          "internalType": "string",
          "name": "",
          "type": "string"
        }
      ],
      "stateMutability": "view",
      "type": "function",
      "constant": true
    },
    {
      "inputs": [
        {
          "internalType": "address",
          "name": "",
          "type": "address"
        }
      ],
      "name": "nonStandardRouters",
      "outputs": [
        {
          "internalType": "address",
          "name": "",
          "type": "address"
        }
      ],
      "stateMutability": "view",
      "type": "function",
      "constant": true
    },
    {
      "inputs": [
        {
          "internalType": "uint256",
          "name": "tokenId",
          "type": "uint256"
        }
      ],
      "name": "ownerOf",
      "outputs": [
        {
          "internalType": "address",
          "name": "",
          "type": "address"
        }
      ],
      "stateMutability": "view",
      "type": "function",
      "constant": true
    },
    {
      "inputs": [
        {
          "internalType": "uint256",
          "name": "",
          "type": "uint256"
        }
      ],
      "name": "parentNfts",
      "outputs": [
        {
          "internalType": "address",
          "name": "tokenAddress",
          "type": "address"
        },
        {
          "internalType": "uint256",
          "name": "tokenId",
          "type": "uint256"
        }
      ],
      "stateMutability": "view",
      "type": "function",
      "constant": true
    },
    {
      "inputs": [],
      "name": "pause",
      "outputs": [],
      "stateMutability": "nonpayable",
      "type": "function"
    },
    {
      "inputs": [],
      "name": "paused",
      "outputs": [
        {
          "internalType": "bool",
          "name": "",
          "type": "bool"
        }
      ],
      "stateMutability": "view",
      "type": "function",
      "constant": true
    },
    {
      "inputs": [],
      "name": "price",
      "outputs": [
        {
          "internalType": "uint256",
          "name": "",
          "type": "uint256"
        }
      ],
      "stateMutability": "view",
      "type": "function",
      "constant": true
    },
    {
      "inputs": [
        {
          "internalType": "bytes32",
          "name": "role",
          "type": "bytes32"
        },
        {
          "internalType": "address",
          "name": "account",
          "type": "address"
        }
      ],
      "name": "renounceRole",
      "outputs": [],
      "stateMutability": "nonpayable",
      "type": "function"
    },
    {
      "inputs": [
        {
          "internalType": "bytes32",
          "name": "role",
          "type": "bytes32"
        },
        {
          "internalType": "address",
          "name": "account",
          "type": "address"
        }
      ],
      "name": "revokeRole",
      "outputs": [],
      "stateMutability": "nonpayable",
      "type": "function"
    },
    {
      "inputs": [
        {
          "internalType": "address",
          "name": "from",
          "type": "address"
        },
        {
          "internalType": "address",
          "name": "to",
          "type": "address"
        },
        {
          "internalType": "uint256",
          "name": "tokenId",
          "type": "uint256"
        }
      ],
      "name": "safeTransferFrom",
      "outputs": [],
      "stateMutability": "nonpayable",
      "type": "function"
    },
    {
      "inputs": [
        {
          "internalType": "address",
          "name": "from",
          "type": "address"
        },
        {
          "internalType": "address",
          "name": "to",
          "type": "address"
        },
        {
          "internalType": "uint256",
          "name": "tokenId",
          "type": "uint256"
        },
        {
          "internalType": "bytes",
          "name": "_data",
          "type": "bytes"
        }
      ],
      "name": "safeTransferFrom",
      "outputs": [],
      "stateMutability": "nonpayable",
      "type": "function"
    },
    {
      "inputs": [
        {
          "internalType": "address",
          "name": "operator",
          "type": "address"
        },
        {
          "internalType": "bool",
          "name": "approved",
          "type": "bool"
        }
      ],
      "name": "setApprovalForAll",
      "outputs": [],
      "stateMutability": "nonpayable",
      "type": "function"
    },
    {
      "inputs": [
        {
          "internalType": "address",
          "name": "",
          "type": "address"
        }
      ],
      "name": "standardStatus",
      "outputs": [
        {
          "internalType": "bool",
          "name": "",
          "type": "bool"
        }
      ],
      "stateMutability": "view",
      "type": "function",
      "constant": true
    },
    {
      "inputs": [
        {
          "internalType": "bytes4",
          "name": "interfaceId",
          "type": "bytes4"
        }
      ],
      "name": "supportsInterface",
      "outputs": [
        {
          "internalType": "bool",
          "name": "",
          "type": "bool"
        }
      ],
      "stateMutability": "view",
      "type": "function",
      "constant": true
    },
    {
      "inputs": [],
      "name": "symbol",
      "outputs": [
        {
          "internalType": "string",
          "name": "",
          "type": "string"
        }
      ],
      "stateMutability": "view",
      "type": "function",
      "constant": true
    },
    {
      "inputs": [
        {
          "internalType": "uint256",
          "name": "index",
          "type": "uint256"
        }
      ],
      "name": "tokenByIndex",
      "outputs": [
        {
          "internalType": "uint256",
          "name": "",
          "type": "uint256"
        }
      ],
      "stateMutability": "view",
      "type": "function",
      "constant": true
    },
    {
      "inputs": [
        {
          "internalType": "address",
          "name": "owner",
          "type": "address"
        },
        {
          "internalType": "uint256",
          "name": "index",
          "type": "uint256"
        }
      ],
      "name": "tokenOfOwnerByIndex",
      "outputs": [
        {
          "internalType": "uint256",
          "name": "",
          "type": "uint256"
        }
      ],
      "stateMutability": "view",
      "type": "function",
      "constant": true
    },
    {
      "inputs": [],
      "name": "totalSupply",
      "outputs": [
        {
          "internalType": "uint256",
          "name": "",
          "type": "uint256"
        }
      ],
      "stateMutability": "view",
      "type": "function",
      "constant": true
    },
    {
      "inputs": [
        {
          "internalType": "address",
          "name": "from",
          "type": "address"
        },
        {
          "internalType": "address",
          "name": "to",
          "type": "address"
        },
        {
          "internalType": "uint256",
          "name": "tokenId",
          "type": "uint256"
        }
      ],
      "name": "transferFrom",
      "outputs": [],
      "stateMutability": "nonpayable",
      "type": "function"
    },
    {
      "inputs": [],
      "name": "unpause",
      "outputs": [],
      "stateMutability": "nonpayable",
      "type": "function"
    },
    {
      "inputs": [
        {
          "internalType": "uint256",
          "name": "_tokenId",
          "type": "uint256"
        }
      ],
      "name": "exists",
      "outputs": [
        {
          "internalType": "bool",
          "name": "",
          "type": "bool"
        }
      ],
      "stateMutability": "view",
      "type": "function",
      "constant": true
    },
    {
      "inputs": [
        {
          "internalType": "address",
          "name": "_parentTokenAddress",
          "type": "address"
        },
        {
          "internalType": "uint256",
          "name": "_parentTokenId",
          "type": "uint256"
        }
      ],
      "name": "buy",
      "outputs": [],
      "stateMutability": "payable",
      "type": "function",
      "payable": true
    },
    {
      "inputs": [
        {
          "internalType": "uint256",
          "name": "tokenId",
          "type": "uint256"
        }
      ],
      "name": "tokenURI",
      "outputs": [
        {
          "internalType": "string",
          "name": "",
          "type": "string"
        }
      ],
      "stateMutability": "view",
      "type": "function",
      "constant": true
    },
    {
      "inputs": [
        {
          "internalType": "address",
          "name": "_nftAddress",
          "type": "address"
        },
        {
          "internalType": "bool",
          "name": "_allowed",
          "type": "bool"
        },
        {
          "internalType": "bool",
          "name": "_standard",
          "type": "bool"
        },
        {
          "internalType": "address",
          "name": "_nonStandardRouter",
          "type": "address"
        }
      ],
      "name": "setAllowedNft",
      "outputs": [],
      "stateMutability": "nonpayable",
      "type": "function"
    },
    {
      "inputs": [
        {
          "internalType": "bool",
          "name": "_e",
          "type": "bool"
        }
      ],
      "name": "setIsExclusive",
      "outputs": [],
      "stateMutability": "nonpayable",
      "type": "function"
    },
    {
      "inputs": [
        {
          "internalType": "address",
          "name": "_u",
          "type": "address"
        }
      ],
      "name": "setURIRouter",
      "outputs": [],
      "stateMutability": "nonpayable",
      "type": "function"
    },
    {
      "inputs": [
        {
          "internalType": "string",
          "name": "_u",
          "type": "string"
        }
      ],
      "name": "setURIRoot",
      "outputs": [],
      "stateMutability": "nonpayable",
      "type": "function"
    },
    {
      "inputs": [
        {
          "internalType": "uint256",
          "name": "_p",
          "type": "uint256"
        }
      ],
      "name": "setPrice",
      "outputs": [],
      "stateMutability": "nonpayable",
      "type": "function"
    },
    {
      "inputs": [
        {
          "internalType": "bool",
          "name": "_hasMaxSupply",
          "type": "bool"
        },
        {
          "internalType": "uint256",
          "name": "_maxSupply",
          "type": "uint256"
        }
      ],
      "name": "setMaxSupply",
      "outputs": [],
      "stateMutability": "nonpayable",
      "type": "function"
    },
    {
      "inputs": [],
      "name": "withdrawal",
      "outputs": [],
      "stateMutability": "nonpayable",
      "type": "function"
    }
  ],
  "bytecode": "0x6701aa535d3d0c0000600f556010805460ff19169055600060115561010060405260426080818152906200373960a03980516200004591601491602090910190620003a1565b506018805460ff191660011790553480156200006057600080fd5b506040516200377b3803806200377b833981016040819052620000839162000447565b6040518060400160405280600d81526020016c4c46472043796265724465636b60981b8152506040518060400160405280600681526020016543594445434b60d01b81525060148054620000d79062000479565b80601f0160208091040260200160405190810160405280929190818152602001828054620001059062000479565b8015620001565780601f106200012a5761010080835404028352916020019162000156565b820191906000526020600020905b8154815290600101906020018083116200013857829003601f168201915b505085518693508592506200017491506002906020850190620003a1565b5080516200018a906003906020840190620003a1565b5050600c805460ff19169055508051620001ac90600e906020840190620003a1565b50620001ba6000336200023c565b620001e67f9f2df0fed2c77648de5860a4cc508cd0818c85b8b8a1ab4ceeef8d981c8956a6336200023c565b620002127f65d7a28e3265b37a6474929f336521b332c1681b933f6cb9f3376673440d862a336200023c565b5050601280546001600160a01b0319166001600160a01b03939093169290921790915550620004b5565b6200024882826200024c565b5050565b6200026382826200028f60201b620019e61760201c565b60008281526001602090815260409091206200028a91839062001a6a6200032f821b17901c565b505050565b6000828152602081815260408083206001600160a01b038516845290915290205460ff1662000248576000828152602081815260408083206001600160a01b03851684529091529020805460ff19166001179055620002eb3390565b6001600160a01b0316816001600160a01b0316837f2f8788117e7eff1d82e926ec794901d17c78024a50270940304540a733656f0d60405160405180910390a45050565b600062000346836001600160a01b0384166200034f565b90505b92915050565b6000818152600183016020526040812054620003985750815460018181018455600084815260208082209093018490558454848252828601909352604090209190915562000349565b50600062000349565b828054620003af9062000479565b90600052602060002090601f016020900481019282620003d357600085556200041e565b82601f10620003ee57805160ff19168380011785556200041e565b828001600101855582156200041e579182015b828111156200041e57825182559160200191906001019062000401565b506200042c92915062000430565b5090565b5b808211156200042c576000815560010162000431565b6000602082840312156200045a57600080fd5b81516001600160a01b03811681146200047257600080fd5b9392505050565b600181811c908216806200048e57607f821691505b602082108103620004af57634e487b7160e01b600052602260045260246000fd5b50919050565b61327480620004c56000396000f3fe6080604052600436106102c95760003560e01c80638456cb5911610175578063bac6d072116100dc578063d4e9329211610095578063d5abeb011161006f578063d5abeb01146108f7578063e63ab1e91461090d578063e985e9c514610941578063f835ec151461098a57600080fd5b8063d4e932921461088e578063d5391393146108a3578063d547741f146108d757600080fd5b8063bac6d072146107aa578063c2f67603146107e0578063c87b56dd14610800578063ca15c87314610820578063cce7ec1314610840578063ce2a6d691461085357600080fd5b8063a035b1fe1161012e578063a035b1fe146106c9578063a217fddf146106df578063a22cb465146106f4578063aa46a40014610714578063aadd01ab1461072b578063b88d4fde1461078a57600080fd5b80638456cb59146106255780638876dea61461063a5780639010d07c1461065457806391b7f5ed1461067457806391d148541461069457806395d89b41146106b457600080fd5b80634065d1811161023457806358e702b1116101ed578063664466dd116101c7578063664466dd146105ab5780636a627842146105c557806370a08231146105e55780637198a5501461060557600080fd5b806358e702b1146105535780635c975abb146105735780636352211e1461058b57600080fd5b80634065d1811461049357806342842e0e146104b357806342966c68146104d357806348b00d82146104f35780634f558e79146105135780634f6ccce71461053357600080fd5b8063248a9ca311610286578063248a9ca3146103be5780632f2ff15d146103ee5780632f745c591461040e57806336568abe1461042e5780633f4ba83a1461044e57806340154ff71461046357600080fd5b806301ffc9a7146102ce57806306fdde0314610303578063081812fc14610325578063095ea7b31461035d57806318160ddd1461037f57806323b872dd1461039e575b600080fd5b3480156102da57600080fd5b506102ee6102e9366004612b03565b6109ba565b60405190151581526020015b60405180910390f35b34801561030f57600080fd5b506103186109cb565b6040516102fa9190612b78565b34801561033157600080fd5b50610345610340366004612b8b565b610a5d565b6040516001600160a01b0390911681526020016102fa565b34801561036957600080fd5b5061037d610378366004612bb9565b610af7565b005b34801561038b57600080fd5b50600a545b6040519081526020016102fa565b3480156103aa57600080fd5b5061037d6103b9366004612be5565b610c0c565b3480156103ca57600080fd5b506103906103d9366004612b8b565b60009081526020819052604090206001015490565b3480156103fa57600080fd5b5061037d610409366004612c26565b610c3e565b34801561041a57600080fd5b50610390610429366004612bb9565b610c64565b34801561043a57600080fd5b5061037d610449366004612c26565b610cfa565b34801561045a57600080fd5b5061037d610d78565b34801561046f57600080fd5b506102ee61047e366004612c56565b60196020526000908152604090205460ff1681565b34801561049f57600080fd5b5061037d6104ae366004612d20565b610e20565b3480156104bf57600080fd5b5061037d6104ce366004612be5565b610e5a565b3480156104df57600080fd5b5061037d6104ee366004612b8b565b610e75565b3480156104ff57600080fd5b5061037d61050e366004612c56565b610eef565b34801561051f57600080fd5b506102ee61052e366004612b8b565b610f38565b34801561053f57600080fd5b5061039061054e366004612b8b565b610f57565b34801561055f57600080fd5b5061037d61056e366004612d7e565b610fea565b34801561057f57600080fd5b50600c5460ff166102ee565b34801561059757600080fd5b506103456105a6366004612b8b565b611024565b3480156105b757600080fd5b506010546102ee9060ff1681565b3480156105d157600080fd5b5061037d6105e0366004612c56565b61109b565b3480156105f157600080fd5b50610390610600366004612c56565b611157565b34801561061157600080fd5b5061037d610620366004612d99565b6111de565b34801561063157600080fd5b5061037d61127c565b34801561064657600080fd5b506018546102ee9060ff1681565b34801561066057600080fd5b5061034561066f366004612df1565b611320565b34801561068057600080fd5b5061037d61068f366004612b8b565b61133f565b3480156106a057600080fd5b506102ee6106af366004612c26565b61136b565b3480156106c057600080fd5b50610318611394565b3480156106d557600080fd5b50610390600f5481565b3480156106eb57600080fd5b50610390600081565b34801561070057600080fd5b5061037d61070f366004612e13565b6113a3565b34801561072057600080fd5b50601b546103909081565b34801561073757600080fd5b5061076b610746366004612b8b565b601560205260009081526040902080546001909101546001600160a01b039091169082565b604080516001600160a01b0390931683526020830191909152016102fa565b34801561079657600080fd5b5061037d6107a5366004612e48565b6113ae565b3480156107b657600080fd5b506103456107c5366004612c56565b601a602052600090815260409020546001600160a01b031681565b3480156107ec57600080fd5b5061037d6107fb366004612ec8565b6113e0565b34801561080c57600080fd5b5061031861081b366004612b8b565b61147e565b34801561082c57600080fd5b5061039061083b366004612b8b565b61156e565b61037d61084e366004612bb9565b611585565b34801561085f57600080fd5b506102ee61086e366004612bb9565b601660209081526000928352604080842090915290825290205460ff1681565b34801561089a57600080fd5b5061037d61195f565b3480156108af57600080fd5b506103907f9f2df0fed2c77648de5860a4cc508cd0818c85b8b8a1ab4ceeef8d981c8956a681565b3480156108e357600080fd5b5061037d6108f2366004612c26565b6119c0565b34801561090357600080fd5b5061039060115481565b34801561091957600080fd5b506103907f65d7a28e3265b37a6474929f336521b332c1681b933f6cb9f3376673440d862a81565b34801561094d57600080fd5b506102ee61095c366004612ee4565b6001600160a01b03918216600090815260076020908152604080832093909416825291909152205460ff1690565b34801561099657600080fd5b506102ee6109a5366004612c56565b60176020526000908152604090205460ff1681565b60006109c582611a7f565b92915050565b6060600280546109da90612f12565b80601f0160208091040260200160405190810160405280929190818152602001828054610a0690612f12565b8015610a535780601f10610a2857610100808354040283529160200191610a53565b820191906000526020600020905b815481529060010190602001808311610a3657829003601f168201915b5050505050905090565b6000818152600460205260408120546001600160a01b0316610adb5760405162461bcd60e51b815260206004820152602c60248201527f4552433732313a20617070726f76656420717565727920666f72206e6f6e657860448201526b34b9ba32b73a103a37b5b2b760a11b60648201526084015b60405180910390fd5b506000908152600660205260409020546001600160a01b031690565b6000610b0282611024565b9050806001600160a01b0316836001600160a01b031603610b6f5760405162461bcd60e51b815260206004820152602160248201527f4552433732313a20617070726f76616c20746f2063757272656e74206f776e656044820152603960f91b6064820152608401610ad2565b336001600160a01b0382161480610b8b5750610b8b813361095c565b610bfd5760405162461bcd60e51b815260206004820152603860248201527f4552433732313a20617070726f76652063616c6c6572206973206e6f74206f7760448201527f6e6572206e6f7220617070726f76656420666f7220616c6c00000000000000006064820152608401610ad2565b610c078383611aa4565b505050565b610c17335b82611b12565b610c335760405162461bcd60e51b8152600401610ad290612f4c565b610c07838383611c09565b600082815260208190526040902060010154610c5a8133611db0565b610c078383611e14565b6000610c6f83611157565b8210610cd15760405162461bcd60e51b815260206004820152602b60248201527f455243373231456e756d657261626c653a206f776e657220696e646578206f7560448201526a74206f6620626f756e647360a81b6064820152608401610ad2565b506001600160a01b03919091166000908152600860209081526040808320938352929052205490565b6001600160a01b0381163314610d6a5760405162461bcd60e51b815260206004820152602f60248201527f416363657373436f6e74726f6c3a2063616e206f6e6c792072656e6f756e636560448201526e103937b632b9903337b91039b2b63360891b6064820152608401610ad2565b610d748282611e36565b5050565b610da27f65d7a28e3265b37a6474929f336521b332c1681b933f6cb9f3376673440d862a3361136b565b610e16576040805162461bcd60e51b81526020600482015260248101919091527f4552433732315072657365744d696e7465725061757365724175746f49643a2060448201527f6d75737420686176652070617573657220726f6c6520746f20756e70617573656064820152608401610ad2565b610e1e611e58565b565b610e2b60003361136b565b610e475760405162461bcd60e51b8152600401610ad290612f9d565b8051610d74906014906020840190612a54565b610c07838383604051806020016040528060008152506113ae565b610e7e33610c11565b610ee35760405162461bcd60e51b815260206004820152603060248201527f4552433732314275726e61626c653a2063616c6c6572206973206e6f74206f7760448201526f1b995c881b9bdc88185c1c1c9bdd995960821b6064820152608401610ad2565b610eec81611eeb565b50565b610efa60003361136b565b610f165760405162461bcd60e51b8152600401610ad290612f9d565b601380546001600160a01b0319166001600160a01b0392909216919091179055565b6000818152600460205260408120546001600160a01b031615156109c5565b6000610f62600a5490565b8210610fc55760405162461bcd60e51b815260206004820152602c60248201527f455243373231456e756d657261626c653a20676c6f62616c20696e646578206f60448201526b7574206f6620626f756e647360a01b6064820152608401610ad2565b600a8281548110610fd857610fd8612fe2565b90600052602060002001549050919050565b610ff560003361136b565b6110115760405162461bcd60e51b8152600401610ad290612f9d565b6018805460ff1916911515919091179055565b6000818152600460205260408120546001600160a01b0316806109c55760405162461bcd60e51b815260206004820152602960248201527f4552433732313a206f776e657220717565727920666f72206e6f6e657869737460448201526832b73a103a37b5b2b760b91b6064820152608401610ad2565b6110c57f9f2df0fed2c77648de5860a4cc508cd0818c85b8b8a1ab4ceeef8d981c8956a63361136b565b6111375760405162461bcd60e51b815260206004820152603d60248201527f4552433732315072657365744d696e7465725061757365724175746f49643a2060448201527f6d7573742068617665206d696e74657220726f6c6520746f206d696e740000006064820152608401610ad2565b61114981611144600d5490565b611f92565b610eec600d80546001019055565b60006001600160a01b0382166111c25760405162461bcd60e51b815260206004820152602a60248201527f4552433732313a2062616c616e636520717565727920666f7220746865207a65604482015269726f206164647265737360b01b6064820152608401610ad2565b506001600160a01b031660009081526005602052604090205490565b6111e960003361136b565b6112055760405162461bcd60e51b8152600401610ad290612f9d565b6001600160a01b0384166000908152601760209081526040808320805460ff19908116881515179091556019909252909120805490911683151517905581611276576001600160a01b038481166000908152601a6020526040902080546001600160a01b0319169183169190911790555b50505050565b6112a67f65d7a28e3265b37a6474929f336521b332c1681b933f6cb9f3376673440d862a3361136b565b6113185760405162461bcd60e51b815260206004820152603e60248201527f4552433732315072657365744d696e7465725061757365724175746f49643a2060448201527f6d75737420686176652070617573657220726f6c6520746f20706175736500006064820152608401610ad2565b610e1e6120e0565b6000828152600160205260408120611338908361215b565b9392505050565b61134a60003361136b565b6113665760405162461bcd60e51b8152600401610ad290612f9d565b600f55565b6000918252602082815260408084206001600160a01b0393909316845291905290205460ff1690565b6060600380546109da90612f12565b610d74338383612167565b6113b83383611b12565b6113d45760405162461bcd60e51b8152600401610ad290612f4c565b61127684848484612235565b6113eb60003361136b565b6114075760405162461bcd60e51b8152600401610ad290612f9d565b811561146757601b548110156114545760405162461bcd60e51b81526020600482015260126024820152714d617820537570706c7920746f6f206c6f7760701b6044820152606401610ad2565b6010805460ff1916600117905560115550565b6010805460ff191692151592909217909155601155565b6000818152600460205260409020546060906001600160a01b03166114fd5760405162461bcd60e51b815260206004820152602f60248201527f4552433732314d657461646174613a2055524920717565727920666f72206e6f60448201526e3732bc34b9ba32b73a103a37b5b2b760891b6064820152608401610ad2565b60135460405163c87b56dd60e01b8152600481018490526001600160a01b039091169063c87b56dd90602401600060405180830381865afa158015611546573d6000803e3d6000fd5b505050506040513d6000823e601f3d908101601f191682016040526109c59190810190612ff8565b60008181526001602052604081206109c590612268565b60185460ff16156115ef576001600160a01b03821660009081526017602052604090205460ff166115ef5760405162461bcd60e51b81526020600482015260146024820152734e4654206973206e6f74206578636c757369766560601b6044820152606401610ad2565b306001600160a01b038316036116475760405162461bcd60e51b815260206004820152601760248201527f54686973204e46542063616e6e6f7420626520757365640000000000000000006044820152606401610ad2565b600f5434101561168e5760405162461bcd60e51b8152602060048201526012602482015271496e73756666696369656e742046756e647360701b6044820152606401610ad2565b6001600160a01b03821660009081526019602052604090205460ff1615611778576040516331a9108f60e11b815260048101829052829033906001600160a01b03831690636352211e90602401602060405180830381865afa1580156116f8573d6000803e3d6000fd5b505050506040513d601f19601f8201168201806040525081019061171c919061306f565b6001600160a01b0316146117725760405162461bcd60e51b815260206004820152601d60248201527f596f7520617265206e6f74206f776e6572206f662074686973204e46540000006044820152606401610ad2565b5061184e565b6001600160a01b038281166000908152601a6020526040908190205490516331a9108f60e11b81526004810184905233929190911690636352211e90602401602060405180830381865afa1580156117d4573d6000803e3d6000fd5b505050506040513d601f19601f820116820180604052508101906117f8919061306f565b6001600160a01b03161461184e5760405162461bcd60e51b815260206004820152601d60248201527f596f7520617265206e6f74206f776e6572206f662074686973204e46540000006044820152606401610ad2565b6001600160a01b038216600090815260166020908152604080832084845290915290205460ff16156118cc5760405162461bcd60e51b815260206004820152602160248201527f4e46542068617320616c7265616479206265656e207573656420746f206d696e6044820152601d60fa1b6064820152608401610ad2565b60006118d7601b5490565b6040805180820182526001600160a01b038681168083526020808401888152600087815260158352868120955186546001600160a01b03191695169490941785555160019485015590825260168152838220878352905291909120805460ff1916909117905590506119493382611f92565b611957601b80546001019055565b610c07611986565b61196a60003361136b565b6119865760405162461bcd60e51b8152600401610ad290612f9d565b60125460405147916001600160a01b03169082156108fc029083906000818181858888f19350505050158015610d74573d6000803e3d6000fd5b6000828152602081905260409020600101546119dc8133611db0565b610c078383611e36565b6119f0828261136b565b610d74576000828152602081815260408083206001600160a01b03851684529091529020805460ff19166001179055611a263390565b6001600160a01b0316816001600160a01b0316837f2f8788117e7eff1d82e926ec794901d17c78024a50270940304540a733656f0d60405160405180910390a45050565b6000611338836001600160a01b038416612272565b60006001600160e01b0319821663780e9d6360e01b14806109c557506109c5826122c1565b600081815260066020526040902080546001600160a01b0319166001600160a01b0384169081179091558190611ad982611024565b6001600160a01b03167f8c5be1e5ebec7d5bd14f71427d1e84f3dd0314c0f7b2291e5b200ac8c7c3b92560405160405180910390a45050565b6000818152600460205260408120546001600160a01b0316611b8b5760405162461bcd60e51b815260206004820152602c60248201527f4552433732313a206f70657261746f7220717565727920666f72206e6f6e657860448201526b34b9ba32b73a103a37b5b2b760a11b6064820152608401610ad2565b6000611b9683611024565b9050806001600160a01b0316846001600160a01b03161480611bd15750836001600160a01b0316611bc684610a5d565b6001600160a01b0316145b80611c0157506001600160a01b0380821660009081526007602090815260408083209388168352929052205460ff165b949350505050565b826001600160a01b0316611c1c82611024565b6001600160a01b031614611c805760405162461bcd60e51b815260206004820152602560248201527f4552433732313a207472616e736665722066726f6d20696e636f72726563742060448201526437bbb732b960d91b6064820152608401610ad2565b6001600160a01b038216611ce25760405162461bcd60e51b8152602060048201526024808201527f4552433732313a207472616e7366657220746f20746865207a65726f206164646044820152637265737360e01b6064820152608401610ad2565b611ced838383612301565b611cf8600082611aa4565b6001600160a01b0383166000908152600560205260408120805460019290611d219084906130a2565b90915550506001600160a01b0382166000908152600560205260408120805460019290611d4f9084906130b9565b909155505060008181526004602052604080822080546001600160a01b0319166001600160a01b0386811691821790925591518493918716917fddf252ad1be2c89b69c2b068fc378daa952ba7f163c4a11628f55a4df523b3ef91a4505050565b611dba828261136b565b610d7457611dd2816001600160a01b0316601461230c565b611ddd83602061230c565b604051602001611dee9291906130d1565b60408051601f198184030181529082905262461bcd60e51b8252610ad291600401612b78565b611e1e82826119e6565b6000828152600160205260409020610c079082611a6a565b611e4082826124a8565b6000828152600160205260409020610c07908261250d565b600c5460ff16611ea15760405162461bcd60e51b815260206004820152601460248201527314185d5cd8589b194e881b9bdd081c185d5cd95960621b6044820152606401610ad2565b600c805460ff191690557f5db9ee0a495bf2e6ff9c91a7834c1ba4fdd244a5e8aa4e537bd38aeae4b073aa335b6040516001600160a01b03909116815260200160405180910390a1565b6000611ef682611024565b9050611f0481600084612301565b611f0f600083611aa4565b6001600160a01b0381166000908152600560205260408120805460019290611f389084906130a2565b909155505060008281526004602052604080822080546001600160a01b0319169055518391906001600160a01b038416907fddf252ad1be2c89b69c2b068fc378daa952ba7f163c4a11628f55a4df523b3ef908390a45050565b6001600160a01b038216611fe85760405162461bcd60e51b815260206004820181905260248201527f4552433732313a206d696e7420746f20746865207a65726f20616464726573736044820152606401610ad2565b6000818152600460205260409020546001600160a01b03161561204d5760405162461bcd60e51b815260206004820152601c60248201527f4552433732313a20746f6b656e20616c7265616479206d696e746564000000006044820152606401610ad2565b61205960008383612301565b6001600160a01b03821660009081526005602052604081208054600192906120829084906130b9565b909155505060008181526004602052604080822080546001600160a01b0319166001600160a01b03861690811790915590518392907fddf252ad1be2c89b69c2b068fc378daa952ba7f163c4a11628f55a4df523b3ef908290a45050565b600c5460ff16156121265760405162461bcd60e51b815260206004820152601060248201526f14185d5cd8589b194e881c185d5cd95960821b6044820152606401610ad2565b600c805460ff191660011790557f62e78cea01bee320cd4e420270b5ea74000d11b0c9f74754ebdbfc544b05a258611ece3390565b60006113388383612522565b816001600160a01b0316836001600160a01b0316036121c85760405162461bcd60e51b815260206004820152601960248201527f4552433732313a20617070726f766520746f2063616c6c6572000000000000006044820152606401610ad2565b6001600160a01b03838116600081815260076020908152604080832094871680845294825291829020805460ff191686151590811790915591519182527f17307eab39ab6107e8899845ad3d59bd9653f200f220920489ca2b5937696c31910160405180910390a3505050565b612240848484611c09565b61224c8484848461254c565b6112765760405162461bcd60e51b8152600401610ad290613146565b60006109c5825490565b60008181526001830160205260408120546122b9575081546001818101845560008481526020808220909301849055845484825282860190935260409020919091556109c5565b5060006109c5565b60006001600160e01b031982166380ac58cd60e01b14806122f257506001600160e01b03198216635b5e139f60e01b145b806109c557506109c58261264d565b610c07838383612672565b6060600061231b836002613198565b6123269060026130b9565b67ffffffffffffffff81111561233e5761233e612c73565b6040519080825280601f01601f191660200182016040528015612368576020820181803683370190505b509050600360fc1b8160008151811061238357612383612fe2565b60200101906001600160f81b031916908160001a905350600f60fb1b816001815181106123b2576123b2612fe2565b60200101906001600160f81b031916908160001a90535060006123d6846002613198565b6123e19060016130b9565b90505b6001811115612459576f181899199a1a9b1b9c1cb0b131b232b360811b85600f166010811061241557612415612fe2565b1a60f81b82828151811061242b5761242b612fe2565b60200101906001600160f81b031916908160001a90535060049490941c93612452816131b7565b90506123e4565b5083156113385760405162461bcd60e51b815260206004820181905260248201527f537472696e67733a20686578206c656e67746820696e73756666696369656e746044820152606401610ad2565b6124b2828261136b565b15610d74576000828152602081815260408083206001600160a01b0385168085529252808320805460ff1916905551339285917ff6391f5c32d9c69d2a47ea670b442974b53935d1edc7fd64eb21e047a839171b9190a45050565b6000611338836001600160a01b0384166126e4565b600082600001828154811061253957612539612fe2565b9060005260206000200154905092915050565b60006001600160a01b0384163b1561264257604051630a85bd0160e11b81526001600160a01b0385169063150b7a02906125909033908990889088906004016131ce565b6020604051808303816000875af19250505080156125cb575060408051601f3d908101601f191682019092526125c89181019061320b565b60015b612628573d8080156125f9576040519150601f19603f3d011682016040523d82523d6000602084013e6125fe565b606091505b5080516000036126205760405162461bcd60e51b8152600401610ad290613146565b805181602001fd5b6001600160e01b031916630a85bd0160e11b149050611c01565b506001949350505050565b60006001600160e01b03198216635a05180f60e01b14806109c557506109c5826127d7565b61267d83838361280c565b600c5460ff1615610c075760405162461bcd60e51b815260206004820152602b60248201527f4552433732315061757361626c653a20746f6b656e207472616e73666572207760448201526a1a1a5b19481c185d5cd95960aa1b6064820152608401610ad2565b600081815260018301602052604081205480156127cd5760006127086001836130a2565b855490915060009061271c906001906130a2565b905081811461278157600086600001828154811061273c5761273c612fe2565b906000526020600020015490508087600001848154811061275f5761275f612fe2565b6000918252602080832090910192909255918252600188019052604090208390555b855486908061279257612792613228565b6001900381819060005260206000200160009055905585600101600086815260200190815260200160002060009055600193505050506109c5565b60009150506109c5565b60006001600160e01b03198216637965db0b60e01b14806109c557506301ffc9a760e01b6001600160e01b03198316146109c5565b6001600160a01b0383166128675761286281600a80546000838152600b60205260408120829055600182018355919091527fc65a7bb8d6351c1cf70c95a316cc6a92839c986682d98bc35f958f4883f9d2a80155565b61288a565b816001600160a01b0316836001600160a01b03161461288a5761288a83826128c4565b6001600160a01b0382166128a157610c0781612961565b826001600160a01b0316826001600160a01b031614610c0757610c078282612a10565b600060016128d184611157565b6128db91906130a2565b60008381526009602052604090205490915080821461292e576001600160a01b03841660009081526008602090815260408083208584528252808320548484528184208190558352600990915290208190555b5060009182526009602090815260408084208490556001600160a01b039094168352600881528383209183525290812055565b600a54600090612973906001906130a2565b6000838152600b6020526040812054600a805493945090928490811061299b5761299b612fe2565b9060005260206000200154905080600a83815481106129bc576129bc612fe2565b6000918252602080832090910192909255828152600b9091526040808220849055858252812055600a8054806129f4576129f4613228565b6001900381819060005260206000200160009055905550505050565b6000612a1b83611157565b6001600160a01b039093166000908152600860209081526040808320868452825280832085905593825260099052919091209190915550565b828054612a6090612f12565b90600052602060002090601f016020900481019282612a825760008555612ac8565b82601f10612a9b57805160ff1916838001178555612ac8565b82800160010185558215612ac8579182015b82811115612ac8578251825591602001919060010190612aad565b50612ad4929150612ad8565b5090565b5b80821115612ad45760008155600101612ad9565b6001600160e01b031981168114610eec57600080fd5b600060208284031215612b1557600080fd5b813561133881612aed565b60005b83811015612b3b578181015183820152602001612b23565b838111156112765750506000910152565b60008151808452612b64816020860160208601612b20565b601f01601f19169290920160200192915050565b6020815260006113386020830184612b4c565b600060208284031215612b9d57600080fd5b5035919050565b6001600160a01b0381168114610eec57600080fd5b60008060408385031215612bcc57600080fd5b8235612bd781612ba4565b946020939093013593505050565b600080600060608486031215612bfa57600080fd5b8335612c0581612ba4565b92506020840135612c1581612ba4565b929592945050506040919091013590565b60008060408385031215612c3957600080fd5b823591506020830135612c4b81612ba4565b809150509250929050565b600060208284031215612c6857600080fd5b813561133881612ba4565b634e487b7160e01b600052604160045260246000fd5b604051601f8201601f1916810167ffffffffffffffff81118282101715612cb257612cb2612c73565b604052919050565b600067ffffffffffffffff821115612cd457612cd4612c73565b50601f01601f191660200190565b6000612cf5612cf084612cba565b612c89565b9050828152838383011115612d0957600080fd5b828260208301376000602084830101529392505050565b600060208284031215612d3257600080fd5b813567ffffffffffffffff811115612d4957600080fd5b8201601f81018413612d5a57600080fd5b611c0184823560208401612ce2565b80358015158114612d7957600080fd5b919050565b600060208284031215612d9057600080fd5b61133882612d69565b60008060008060808587031215612daf57600080fd5b8435612dba81612ba4565b9350612dc860208601612d69565b9250612dd660408601612d69565b91506060850135612de681612ba4565b939692955090935050565b60008060408385031215612e0457600080fd5b50508035926020909101359150565b60008060408385031215612e2657600080fd5b8235612e3181612ba4565b9150612e3f60208401612d69565b90509250929050565b60008060008060808587031215612e5e57600080fd5b8435612e6981612ba4565b93506020850135612e7981612ba4565b925060408501359150606085013567ffffffffffffffff811115612e9c57600080fd5b8501601f81018713612ead57600080fd5b612ebc87823560208401612ce2565b91505092959194509250565b60008060408385031215612edb57600080fd5b612bd783612d69565b60008060408385031215612ef757600080fd5b8235612f0281612ba4565b91506020830135612c4b81612ba4565b600181811c90821680612f2657607f821691505b602082108103612f4657634e487b7160e01b600052602260045260246000fd5b50919050565b60208082526031908201527f4552433732313a207472616e736665722063616c6c6572206973206e6f74206f6040820152701ddb995c881b9bdc88185c1c1c9bdd9959607a1b606082015260800190565b60208082526025908201527f596f7520646f6e27742068617665207065726d697373696f6e20746f20646f206040820152643a3434b99760d91b606082015260800190565b634e487b7160e01b600052603260045260246000fd5b60006020828403121561300a57600080fd5b815167ffffffffffffffff81111561302157600080fd5b8201601f8101841361303257600080fd5b8051613040612cf082612cba565b81815285602083850101111561305557600080fd5b613066826020830160208601612b20565b95945050505050565b60006020828403121561308157600080fd5b815161133881612ba4565b634e487b7160e01b600052601160045260246000fd5b6000828210156130b4576130b461308c565b500390565b600082198211156130cc576130cc61308c565b500190565b7f416363657373436f6e74726f6c3a206163636f756e7420000000000000000000815260008351613109816017850160208801612b20565b7001034b99036b4b9b9b4b733903937b6329607d1b601791840191820152835161313a816028840160208801612b20565b01602801949350505050565b60208082526032908201527f4552433732313a207472616e7366657220746f206e6f6e20455243373231526560408201527131b2b4bb32b91034b6b83632b6b2b73a32b960711b606082015260800190565b60008160001904831182151516156131b2576131b261308c565b500290565b6000816131c6576131c661308c565b506000190190565b6001600160a01b038581168252841660208201526040810183905260806060820181905260009061320190830184612b4c565b9695505050505050565b60006020828403121561321d57600080fd5b815161133881612aed565b634e487b7160e01b600052603160045260246000fdfea2646970667358221220e4339018cd7163bc2cc6246dceff4d74766a0d3152f49322ee404f28ba0593cd64736f6c634300080d0033697066733a2f2f516d62344170627a61696a4e743731535a6e33724e616961466474456b464d53637969425032747232767a3674632f64656661756c742e6a736f6e",
  "immutableReferences": {},
  "source": "pragma solidity ^0.8.12;\nimport \"@openzeppelin/contracts/token/ERC721/presets/ERC721PresetMinterPauserAutoId.sol\";\nimport \"@openzeppelin/contracts/token/ERC721/IERC721.sol\";\nimport \"@openzeppelin/contracts/utils/Strings.sol\";\n\ninterface IURIRouter {\n    function tokenURI(uint256 tokenId) external view returns (string memory);\n}\n\ninterface INonStandardNFT {\n    function ownerOf(uint256 tokenId) external view returns (address);\n}\n\ncontract CyberDeck is ERC721PresetMinterPauserAutoId {\n    using Strings for uint256;\n    uint256 public price = .12 ether;\n    bool public hasMaxSupply = false;\n    uint256 public maxSupply = 0;\n    address payable treasury;\n    IURIRouter uriRouter;\n\n    struct ParentNFT {\n        address tokenAddress;\n        uint256 tokenId;\n    }\n\n    string URIRoot =\n        \"ipfs://Qmb4ApbzaijNt71SZn3rNaiaFdtEkFMScyiBP2tr2vz6tc/default.json\";\n\n    mapping(uint256 => ParentNFT) public parentNfts;\n    mapping(address => mapping(uint256 => bool)) public mintedStatus;\n    mapping(address => bool) public allowedNfts;\n    bool public isExclusive = true;\n    mapping(address => bool) public standardStatus;\n    mapping(address => address) public nonStandardRouters;\n\n    using Counters for Counters.Counter;\n    Counters.Counter public _tokenIds;\n\n    constructor(address payable treasuryAddress)\n        ERC721PresetMinterPauserAutoId(\"LFG CyberDeck\", \"CYDECK\", URIRoot)\n    {\n        treasury = treasuryAddress;\n    }\n\n    function _createParentNFT(\n        address _parentTokenAddress,\n        uint256 _parentTokenId,\n        uint256 _tokenId\n    ) private {\n        parentNfts[_tokenId] = ParentNFT({\n            tokenAddress: _parentTokenAddress,\n            tokenId: _parentTokenId\n        });\n    }\n\n    function exists(uint256 _tokenId) public view returns (bool) {\n        return _exists(_tokenId);\n    }\n\n    function buy(address _parentTokenAddress, uint256 _parentTokenId)\n        public\n        payable\n    {\n        if (isExclusive) {\n            require(allowedNfts[_parentTokenAddress], \"NFT is not exclusive\");\n        }\n        require(\n            _parentTokenAddress != address(this),\n            \"This NFT cannot be used\"\n        );\n\n        require(msg.value >= price, \"Insufficient Funds\");\n\n        if (standardStatus[_parentTokenAddress]) {\n            IERC721 _nft = IERC721(_parentTokenAddress);\n            require(\n                _nft.ownerOf(_parentTokenId) == msg.sender,\n                \"You are not owner of this NFT\"\n            );\n        } else {\n            require(\n                INonStandardNFT(nonStandardRouters[_parentTokenAddress])\n                    .ownerOf(_parentTokenId) == msg.sender,\n                \"You are not owner of this NFT\"\n            );\n        }\n        require(\n            !mintedStatus[_parentTokenAddress][_parentTokenId],\n            \"NFT has already been used to mint\"\n        );\n        uint256 currentID = _tokenIds.current();\n        _createParentNFT(_parentTokenAddress, _parentTokenId, currentID);\n        mintedStatus[_parentTokenAddress][_parentTokenId] = true;\n        _mint(msg.sender, currentID);\n        _tokenIds.increment();\n        //TODO: pay guys\n        payGuys();\n    }\n\n    function tokenURI(uint256 tokenId)\n        public\n        view\n        virtual\n        override\n        returns (string memory)\n    {\n        require(\n            _exists(tokenId),\n            \"ERC721Metadata: URI query for nonexistent token\"\n        );\n\n        return uriRouter.tokenURI(tokenId);\n    }\n\n    function setAllowedNft(\n        address _nftAddress,\n        bool _allowed,\n        bool _standard,\n        address _nonStandardRouter\n    ) public {\n        require(\n            hasRole(DEFAULT_ADMIN_ROLE, _msgSender()),\n            \"You don't have permission to do this.\"\n        );\n        allowedNfts[_nftAddress] = _allowed;\n        standardStatus[_nftAddress] = _standard;\n        if (!_standard) {\n            nonStandardRouters[_nftAddress] = _nonStandardRouter;\n        }\n    }\n\n    function setIsExclusive(bool _e) public {\n        require(\n            hasRole(DEFAULT_ADMIN_ROLE, _msgSender()),\n            \"You don't have permission to do this.\"\n        );\n        isExclusive = _e;\n    }\n\n    function setURIRouter(address _u) public {\n        require(\n            hasRole(DEFAULT_ADMIN_ROLE, _msgSender()),\n            \"You don't have permission to do this.\"\n        );\n        uriRouter = IURIRouter(_u);\n    }\n\n    function setURIRoot(string memory _u) public {\n        require(\n            hasRole(DEFAULT_ADMIN_ROLE, _msgSender()),\n            \"You don't have permission to do this.\"\n        );\n        URIRoot = _u;\n    }\n\n    function setPrice(uint256 _p) public {\n        require(\n            hasRole(DEFAULT_ADMIN_ROLE, _msgSender()),\n            \"You don't have permission to do this.\"\n        );\n        price = _p;\n    }\n\n    function setMaxSupply(bool _hasMaxSupply, uint256 _maxSupply) public {\n        require(\n            hasRole(DEFAULT_ADMIN_ROLE, _msgSender()),\n            \"You don't have permission to do this.\"\n        );\n        if (_hasMaxSupply) {\n            require(_maxSupply >= _tokenIds.current(), \"Max Supply too low\");\n            hasMaxSupply = true;\n            maxSupply = _maxSupply;\n        } else {\n            hasMaxSupply = _hasMaxSupply;\n            maxSupply = _maxSupply;\n        }\n    }\n\n    function payGuys() private {\n        uint256 balance = address(this).balance;\n        treasury.transfer(balance);\n    }\n\n    function withdrawal() public {\n        require(\n            hasRole(DEFAULT_ADMIN_ROLE, _msgSender()),\n            \"You don't have permission to do this.\"\n        );\n        uint256 balance = address(this).balance;\n        treasury.transfer(balance);\n    }\n}\n",
  "sourcePath": "/Users/robertrinearson/Documents/blockchain/lfg/cyberdeck-twitter/src/contracts/CyberDeck.sol",
  "compiler": {
    "name": "solc",
    "version": "0.8.13+commit.abaa5c0e.Emscripten.clang"
  },
  "schemaVersion": "3.4.3",
  "updatedAt": "2022-04-06T00:59:37.863Z",
  "networkType": "ethereum",
  "devdoc": {
    "kind": "dev",
    "methods": {
      "approve(address,uint256)": {
        "details": "See {IERC721-approve}."
      },
      "balanceOf(address)": {
        "details": "See {IERC721-balanceOf}."
      },
      "burn(uint256)": {
        "details": "Burns `tokenId`. See {ERC721-_burn}. Requirements: - The caller must own `tokenId` or be an approved operator."
      },
      "getApproved(uint256)": {
        "details": "See {IERC721-getApproved}."
      },
      "getRoleAdmin(bytes32)": {
        "details": "Returns the admin role that controls `role`. See {grantRole} and {revokeRole}. To change a role's admin, use {_setRoleAdmin}."
      },
      "getRoleMember(bytes32,uint256)": {
        "details": "Returns one of the accounts that have `role`. `index` must be a value between 0 and {getRoleMemberCount}, non-inclusive. Role bearers are not sorted in any particular way, and their ordering may change at any point. WARNING: When using {getRoleMember} and {getRoleMemberCount}, make sure you perform all queries on the same block. See the following https://forum.openzeppelin.com/t/iterating-over-elements-on-enumerableset-in-openzeppelin-contracts/2296[forum post] for more information."
      },
      "getRoleMemberCount(bytes32)": {
        "details": "Returns the number of accounts that have `role`. Can be used together with {getRoleMember} to enumerate all bearers of a role."
      },
      "grantRole(bytes32,address)": {
        "details": "Grants `role` to `account`. If `account` had not been already granted `role`, emits a {RoleGranted} event. Requirements: - the caller must have ``role``'s admin role."
      },
      "hasRole(bytes32,address)": {
        "details": "Returns `true` if `account` has been granted `role`."
      },
      "isApprovedForAll(address,address)": {
        "details": "See {IERC721-isApprovedForAll}."
      },
      "mint(address)": {
        "details": "Creates a new token for `to`. Its token ID will be automatically assigned (and available on the emitted {IERC721-Transfer} event), and the token URI autogenerated based on the base URI passed at construction. See {ERC721-_mint}. Requirements: - the caller must have the `MINTER_ROLE`."
      },
      "name()": {
        "details": "See {IERC721Metadata-name}."
      },
      "ownerOf(uint256)": {
        "details": "See {IERC721-ownerOf}."
      },
      "pause()": {
        "details": "Pauses all token transfers. See {ERC721Pausable} and {Pausable-_pause}. Requirements: - the caller must have the `PAUSER_ROLE`."
      },
      "paused()": {
        "details": "Returns true if the contract is paused, and false otherwise."
      },
      "renounceRole(bytes32,address)": {
        "details": "Revokes `role` from the calling account. Roles are often managed via {grantRole} and {revokeRole}: this function's purpose is to provide a mechanism for accounts to lose their privileges if they are compromised (such as when a trusted device is misplaced). If the calling account had been revoked `role`, emits a {RoleRevoked} event. Requirements: - the caller must be `account`."
      },
      "revokeRole(bytes32,address)": {
        "details": "Revokes `role` from `account`. If `account` had been granted `role`, emits a {RoleRevoked} event. Requirements: - the caller must have ``role``'s admin role."
      },
      "safeTransferFrom(address,address,uint256)": {
        "details": "See {IERC721-safeTransferFrom}."
      },
      "safeTransferFrom(address,address,uint256,bytes)": {
        "details": "See {IERC721-safeTransferFrom}."
      },
      "setApprovalForAll(address,bool)": {
        "details": "See {IERC721-setApprovalForAll}."
      },
      "supportsInterface(bytes4)": {
        "details": "See {IERC165-supportsInterface}."
      },
      "symbol()": {
        "details": "See {IERC721Metadata-symbol}."
      },
      "tokenByIndex(uint256)": {
        "details": "See {IERC721Enumerable-tokenByIndex}."
      },
      "tokenOfOwnerByIndex(address,uint256)": {
        "details": "See {IERC721Enumerable-tokenOfOwnerByIndex}."
      },
      "tokenURI(uint256)": {
        "details": "See {IERC721Metadata-tokenURI}."
      },
      "totalSupply()": {
        "details": "See {IERC721Enumerable-totalSupply}."
      },
      "transferFrom(address,address,uint256)": {
        "details": "See {IERC721-transferFrom}."
      },
      "unpause()": {
        "details": "Unpauses all token transfers. See {ERC721Pausable} and {Pausable-_unpause}. Requirements: - the caller must have the `PAUSER_ROLE`."
      }
    },
    "version": 1
  },
  "userdoc": {
    "kind": "user",
    "methods": {},
    "version": 1
  }
}