{
  "contractName": "FakeNFT",
  "abi": [
    {
      "inputs": [
        {
          "internalType": "string",
          "name": "name",
          "type": "string"
        },
        {
          "internalType": "string",
          "name": "symbol",
          "type": "string"
        },
        {
          "internalType": "string",
          "name": "uriRoot",
          "type": "string"
        }
      ],
      "stateMutability": "nonpayable",
      "type": "constructor"
    },
    {
      "anonymous": false,
      "inputs": [
        {
          "indexed": true,
          "internalType": "address",
          "name": "owner",
          "type": "address"
        },
        {
          "indexed": true,
          "internalType": "address",
          "name": "approved",
          "type": "address"
        },
        {
          "indexed": true,
          "internalType": "uint256",
          "name": "tokenId",
          "type": "uint256"
        }
      ],
      "name": "Approval",
      "type": "event"
    },
    {
      "anonymous": false,
      "inputs": [
        {
          "indexed": true,
          "internalType": "address",
          "name": "owner",
          "type": "address"
        },
        {
          "indexed": true,
          "internalType": "address",
          "name": "operator",
          "type": "address"
        },
        {
          "indexed": false,
          "internalType": "bool",
          "name": "approved",
          "type": "bool"
        }
      ],
      "name": "ApprovalForAll",
      "type": "event"
    },
    {
      "anonymous": false,
      "inputs": [
        {
          "indexed": false,
          "internalType": "address",
          "name": "account",
          "type": "address"
        }
      ],
      "name": "Paused",
      "type": "event"
    },
    {
      "anonymous": false,
      "inputs": [
        {
          "indexed": true,
          "internalType": "bytes32",
          "name": "role",
          "type": "bytes32"
        },
        {
          "indexed": true,
          "internalType": "bytes32",
          "name": "previousAdminRole",
          "type": "bytes32"
        },
        {
          "indexed": true,
          "internalType": "bytes32",
          "name": "newAdminRole",
          "type": "bytes32"
        }
      ],
      "name": "RoleAdminChanged",
      "type": "event"
    },
    {
      "anonymous": false,
      "inputs": [
        {
          "indexed": true,
          "internalType": "bytes32",
          "name": "role",
          "type": "bytes32"
        },
        {
          "indexed": true,
          "internalType": "address",
          "name": "account",
          "type": "address"
        },
        {
          "indexed": true,
          "internalType": "address",
          "name": "sender",
          "type": "address"
        }
      ],
      "name": "RoleGranted",
      "type": "event"
    },
    {
      "anonymous": false,
      "inputs": [
        {
          "indexed": true,
          "internalType": "bytes32",
          "name": "role",
          "type": "bytes32"
        },
        {
          "indexed": true,
          "internalType": "address",
          "name": "account",
          "type": "address"
        },
        {
          "indexed": true,
          "internalType": "address",
          "name": "sender",
          "type": "address"
        }
      ],
      "name": "RoleRevoked",
      "type": "event"
    },
    {
      "anonymous": false,
      "inputs": [
        {
          "indexed": true,
          "internalType": "address",
          "name": "from",
          "type": "address"
        },
        {
          "indexed": true,
          "internalType": "address",
          "name": "to",
          "type": "address"
        },
        {
          "indexed": true,
          "internalType": "uint256",
          "name": "tokenId",
          "type": "uint256"
        }
      ],
      "name": "Transfer",
      "type": "event"
    },
    {
      "anonymous": false,
      "inputs": [
        {
          "indexed": false,
          "internalType": "address",
          "name": "account",
          "type": "address"
        }
      ],
      "name": "Unpaused",
      "type": "event"
    },
    {
      "inputs": [],
      "name": "DEFAULT_ADMIN_ROLE",
      "outputs": [
        {
          "internalType": "bytes32",
          "name": "",
          "type": "bytes32"
        }
      ],
      "stateMutability": "view",
      "type": "function",
      "constant": true
    },
    {
      "inputs": [],
      "name": "MINTER_ROLE",
      "outputs": [
        {
          "internalType": "bytes32",
          "name": "",
          "type": "bytes32"
        }
      ],
      "stateMutability": "view",
      "type": "function",
      "constant": true
    },
    {
      "inputs": [],
      "name": "PAUSER_ROLE",
      "outputs": [
        {
          "internalType": "bytes32",
          "name": "",
          "type": "bytes32"
        }
      ],
      "stateMutability": "view",
      "type": "function",
      "constant": true
    },
    {
      "inputs": [
        {
          "internalType": "address",
          "name": "to",
          "type": "address"
        },
        {
          "internalType": "uint256",
          "name": "tokenId",
          "type": "uint256"
        }
      ],
      "name": "approve",
      "outputs": [],
      "stateMutability": "nonpayable",
      "type": "function"
    },
    {
      "inputs": [
        {
          "internalType": "address",
          "name": "owner",
          "type": "address"
        }
      ],
      "name": "balanceOf",
      "outputs": [
        {
          "internalType": "uint256",
          "name": "",
          "type": "uint256"
        }
      ],
      "stateMutability": "view",
      "type": "function",
      "constant": true
    },
    {
      "inputs": [
        {
          "internalType": "uint256",
          "name": "tokenId",
          "type": "uint256"
        }
      ],
      "name": "burn",
      "outputs": [],
      "stateMutability": "nonpayable",
      "type": "function"
    },
    {
      "inputs": [
        {
          "internalType": "uint256",
          "name": "tokenId",
          "type": "uint256"
        }
      ],
      "name": "getApproved",
      "outputs": [
        {
          "internalType": "address",
          "name": "",
          "type": "address"
        }
      ],
      "stateMutability": "view",
      "type": "function",
      "constant": true
    },
    {
      "inputs": [
        {
          "internalType": "bytes32",
          "name": "role",
          "type": "bytes32"
        }
      ],
      "name": "getRoleAdmin",
      "outputs": [
        {
          "internalType": "bytes32",
          "name": "",
          "type": "bytes32"
        }
      ],
      "stateMutability": "view",
      "type": "function",
      "constant": true
    },
    {
      "inputs": [
        {
          "internalType": "bytes32",
          "name": "role",
          "type": "bytes32"
        },
        {
          "internalType": "uint256",
          "name": "index",
          "type": "uint256"
        }
      ],
      "name": "getRoleMember",
      "outputs": [
        {
          "internalType": "address",
          "name": "",
          "type": "address"
        }
      ],
      "stateMutability": "view",
      "type": "function",
      "constant": true
    },
    {
      "inputs": [
        {
          "internalType": "bytes32",
          "name": "role",
          "type": "bytes32"
        }
      ],
      "name": "getRoleMemberCount",
      "outputs": [
        {
          "internalType": "uint256",
          "name": "",
          "type": "uint256"
        }
      ],
      "stateMutability": "view",
      "type": "function",
      "constant": true
    },
    {
      "inputs": [
        {
          "internalType": "bytes32",
          "name": "role",
          "type": "bytes32"
        },
        {
          "internalType": "address",
          "name": "account",
          "type": "address"
        }
      ],
      "name": "grantRole",
      "outputs": [],
      "stateMutability": "nonpayable",
      "type": "function"
    },
    {
      "inputs": [
        {
          "internalType": "bytes32",
          "name": "role",
          "type": "bytes32"
        },
        {
          "internalType": "address",
          "name": "account",
          "type": "address"
        }
      ],
      "name": "hasRole",
      "outputs": [
        {
          "internalType": "bool",
          "name": "",
          "type": "bool"
        }
      ],
      "stateMutability": "view",
      "type": "function",
      "constant": true
    },
    {
      "inputs": [
        {
          "internalType": "address",
          "name": "owner",
          "type": "address"
        },
        {
          "internalType": "address",
          "name": "operator",
          "type": "address"
        }
      ],
      "name": "isApprovedForAll",
      "outputs": [
        {
          "internalType": "bool",
          "name": "",
          "type": "bool"
        }
      ],
      "stateMutability": "view",
      "type": "function",
      "constant": true
    },
    {
      "inputs": [
        {
          "internalType": "address",
          "name": "to",
          "type": "address"
        }
      ],
      "name": "mint",
      "outputs": [],
      "stateMutability": "nonpayable",
      "type": "function"
    },
    {
      "inputs": [],
      "name": "name",
      "outputs": [
        {
          "internalType": "string",
          "name": "",
          "type": "string"
        }
      ],
      "stateMutability": "view",
      "type": "function",
      "constant": true
    },
    {
      "inputs": [
        {
          "internalType": "uint256",
          "name": "tokenId",
          "type": "uint256"
        }
      ],
      "name": "ownerOf",
      "outputs": [
        {
          "internalType": "address",
          "name": "",
          "type": "address"
        }
      ],
      "stateMutability": "view",
      "type": "function",
      "constant": true
    },
    {
      "inputs": [],
      "name": "pause",
      "outputs": [],
      "stateMutability": "nonpayable",
      "type": "function"
    },
    {
      "inputs": [],
      "name": "paused",
      "outputs": [
        {
          "internalType": "bool",
          "name": "",
          "type": "bool"
        }
      ],
      "stateMutability": "view",
      "type": "function",
      "constant": true
    },
    {
      "inputs": [
        {
          "internalType": "bytes32",
          "name": "role",
          "type": "bytes32"
        },
        {
          "internalType": "address",
          "name": "account",
          "type": "address"
        }
      ],
      "name": "renounceRole",
      "outputs": [],
      "stateMutability": "nonpayable",
      "type": "function"
    },
    {
      "inputs": [
        {
          "internalType": "bytes32",
          "name": "role",
          "type": "bytes32"
        },
        {
          "internalType": "address",
          "name": "account",
          "type": "address"
        }
      ],
      "name": "revokeRole",
      "outputs": [],
      "stateMutability": "nonpayable",
      "type": "function"
    },
    {
      "inputs": [
        {
          "internalType": "address",
          "name": "from",
          "type": "address"
        },
        {
          "internalType": "address",
          "name": "to",
          "type": "address"
        },
        {
          "internalType": "uint256",
          "name": "tokenId",
          "type": "uint256"
        }
      ],
      "name": "safeTransferFrom",
      "outputs": [],
      "stateMutability": "nonpayable",
      "type": "function"
    },
    {
      "inputs": [
        {
          "internalType": "address",
          "name": "from",
          "type": "address"
        },
        {
          "internalType": "address",
          "name": "to",
          "type": "address"
        },
        {
          "internalType": "uint256",
          "name": "tokenId",
          "type": "uint256"
        },
        {
          "internalType": "bytes",
          "name": "_data",
          "type": "bytes"
        }
      ],
      "name": "safeTransferFrom",
      "outputs": [],
      "stateMutability": "nonpayable",
      "type": "function"
    },
    {
      "inputs": [
        {
          "internalType": "address",
          "name": "operator",
          "type": "address"
        },
        {
          "internalType": "bool",
          "name": "approved",
          "type": "bool"
        }
      ],
      "name": "setApprovalForAll",
      "outputs": [],
      "stateMutability": "nonpayable",
      "type": "function"
    },
    {
      "inputs": [
        {
          "internalType": "bytes4",
          "name": "interfaceId",
          "type": "bytes4"
        }
      ],
      "name": "supportsInterface",
      "outputs": [
        {
          "internalType": "bool",
          "name": "",
          "type": "bool"
        }
      ],
      "stateMutability": "view",
      "type": "function",
      "constant": true
    },
    {
      "inputs": [],
      "name": "symbol",
      "outputs": [
        {
          "internalType": "string",
          "name": "",
          "type": "string"
        }
      ],
      "stateMutability": "view",
      "type": "function",
      "constant": true
    },
    {
      "inputs": [
        {
          "internalType": "uint256",
          "name": "index",
          "type": "uint256"
        }
      ],
      "name": "tokenByIndex",
      "outputs": [
        {
          "internalType": "uint256",
          "name": "",
          "type": "uint256"
        }
      ],
      "stateMutability": "view",
      "type": "function",
      "constant": true
    },
    {
      "inputs": [
        {
          "internalType": "address",
          "name": "owner",
          "type": "address"
        },
        {
          "internalType": "uint256",
          "name": "index",
          "type": "uint256"
        }
      ],
      "name": "tokenOfOwnerByIndex",
      "outputs": [
        {
          "internalType": "uint256",
          "name": "",
          "type": "uint256"
        }
      ],
      "stateMutability": "view",
      "type": "function",
      "constant": true
    },
    {
      "inputs": [
        {
          "internalType": "uint256",
          "name": "tokenId",
          "type": "uint256"
        }
      ],
      "name": "tokenURI",
      "outputs": [
        {
          "internalType": "string",
          "name": "",
          "type": "string"
        }
      ],
      "stateMutability": "view",
      "type": "function",
      "constant": true
    },
    {
      "inputs": [],
      "name": "totalSupply",
      "outputs": [
        {
          "internalType": "uint256",
          "name": "",
          "type": "uint256"
        }
      ],
      "stateMutability": "view",
      "type": "function",
      "constant": true
    },
    {
      "inputs": [
        {
          "internalType": "address",
          "name": "from",
          "type": "address"
        },
        {
          "internalType": "address",
          "name": "to",
          "type": "address"
        },
        {
          "internalType": "uint256",
          "name": "tokenId",
          "type": "uint256"
        }
      ],
      "name": "transferFrom",
      "outputs": [],
      "stateMutability": "nonpayable",
      "type": "function"
    },
    {
      "inputs": [],
      "name": "unpause",
      "outputs": [],
      "stateMutability": "nonpayable",
      "type": "function"
    },
    {
      "inputs": [],
      "name": "buy",
      "outputs": [],
      "stateMutability": "nonpayable",
      "type": "function"
    }
  ],
  "bytecode": "0x60806040523480156200001157600080fd5b5060405162002a9338038062002a938339810160408190526200003491620003d3565b828282828281600290805190602001906200005192919062000260565b5080516200006790600390602084019062000260565b5050600c805460ff191690555080516200008990600e90602084019062000260565b5062000097600033620000fb565b620000c37f9f2df0fed2c77648de5860a4cc508cd0818c85b8b8a1ab4ceeef8d981c8956a633620000fb565b620000ef7f65d7a28e3265b37a6474929f336521b332c1681b933f6cb9f3376673440d862a33620000fb565b505050505050620004a0565b6200010782826200010b565b5050565b6200012282826200014e60201b62000e5c1760201c565b60008281526001602090815260409091206200014991839062000ee0620001ee821b17901c565b505050565b6000828152602081815260408083206001600160a01b038516845290915290205460ff1662000107576000828152602081815260408083206001600160a01b03851684529091529020805460ff19166001179055620001aa3390565b6001600160a01b0316816001600160a01b0316837f2f8788117e7eff1d82e926ec794901d17c78024a50270940304540a733656f0d60405160405180910390a45050565b600062000205836001600160a01b0384166200020e565b90505b92915050565b6000818152600183016020526040812054620002575750815460018181018455600084815260208082209093018490558454848252828601909352604090209190915562000208565b50600062000208565b8280546200026e9062000464565b90600052602060002090601f016020900481019282620002925760008555620002dd565b82601f10620002ad57805160ff1916838001178555620002dd565b82800160010185558215620002dd579182015b82811115620002dd578251825591602001919060010190620002c0565b50620002eb929150620002ef565b5090565b5b80821115620002eb5760008155600101620002f0565b634e487b7160e01b600052604160045260246000fd5b600082601f8301126200032e57600080fd5b81516001600160401b03808211156200034b576200034b62000306565b604051601f8301601f19908116603f0116810190828211818310171562000376576200037662000306565b816040528381526020925086838588010111156200039357600080fd5b600091505b83821015620003b7578582018301518183018401529082019062000398565b83821115620003c95760008385830101525b9695505050505050565b600080600060608486031215620003e957600080fd5b83516001600160401b03808211156200040157600080fd5b6200040f878388016200031c565b945060208601519150808211156200042657600080fd5b62000434878388016200031c565b935060408601519150808211156200044b57600080fd5b506200045a868287016200031c565b9150509250925092565b600181811c908216806200047957607f821691505b6020821081036200049a57634e487b7160e01b600052602260045260246000fd5b50919050565b6125e380620004b06000396000f3fe608060405234801561001057600080fd5b50600436106101f05760003560e01c80636a6278421161010f578063a6f2ae3a116100a2578063d539139311610071578063d53913931461040a578063d547741f14610431578063e63ab1e914610444578063e985e9c51461046b57600080fd5b8063a6f2ae3a146103c9578063b88d4fde146103d1578063c87b56dd146103e4578063ca15c873146103f757600080fd5b806391d14854116100de57806391d148541461039357806395d89b41146103a6578063a217fddf146103ae578063a22cb465146103b657600080fd5b80636a6278421461035257806370a08231146103655780638456cb59146103785780639010d07c1461038057600080fd5b80632f745c591161018757806342966c681161015657806342966c681461030e5780634f6ccce7146103215780635c975abb146103345780636352211e1461033f57600080fd5b80632f745c59146102cd57806336568abe146102e05780633f4ba83a146102f357806342842e0e146102fb57600080fd5b806318160ddd116101c357806318160ddd1461027257806323b872dd14610284578063248a9ca3146102975780632f2ff15d146102ba57600080fd5b806301ffc9a7146101f557806306fdde031461021d578063081812fc14610232578063095ea7b31461025d575b600080fd5b610208610203366004611ff0565b6104a7565b60405190151581526020015b60405180910390f35b6102256104b8565b6040516102149190612065565b610245610240366004612078565b61054a565b6040516001600160a01b039091168152602001610214565b61027061026b3660046120ad565b6105e4565b005b600a545b604051908152602001610214565b6102706102923660046120d7565b6106f9565b6102766102a5366004612078565b60009081526020819052604090206001015490565b6102706102c8366004612113565b61072b565b6102766102db3660046120ad565b610751565b6102706102ee366004612113565b6107e7565b610270610865565b6102706103093660046120d7565b61090d565b61027061031c366004612078565b610928565b61027661032f366004612078565b6109a2565b600c5460ff16610208565b61024561034d366004612078565b610a35565b61027061036036600461213f565b610aac565b61027661037336600461213f565b610b68565b610270610bef565b61024561038e36600461215a565b610c93565b6102086103a1366004612113565b610cb2565b610225610cdb565b610276600081565b6102706103c436600461217c565b610cea565b610270610cf5565b6102706103df3660046121ce565b610d0d565b6102256103f2366004612078565b610d45565b610276610405366004612078565b610e1f565b6102767f9f2df0fed2c77648de5860a4cc508cd0818c85b8b8a1ab4ceeef8d981c8956a681565b61027061043f366004612113565b610e36565b6102767f65d7a28e3265b37a6474929f336521b332c1681b933f6cb9f3376673440d862a81565b6102086104793660046122aa565b6001600160a01b03918216600090815260076020908152604080832093909416825291909152205460ff1690565b60006104b282610ef5565b92915050565b6060600280546104c7906122d4565b80601f01602080910402602001604051908101604052809291908181526020018280546104f3906122d4565b80156105405780601f1061051557610100808354040283529160200191610540565b820191906000526020600020905b81548152906001019060200180831161052357829003601f168201915b5050505050905090565b6000818152600460205260408120546001600160a01b03166105c85760405162461bcd60e51b815260206004820152602c60248201527f4552433732313a20617070726f76656420717565727920666f72206e6f6e657860448201526b34b9ba32b73a103a37b5b2b760a11b60648201526084015b60405180910390fd5b506000908152600660205260409020546001600160a01b031690565b60006105ef82610a35565b9050806001600160a01b0316836001600160a01b03160361065c5760405162461bcd60e51b815260206004820152602160248201527f4552433732313a20617070726f76616c20746f2063757272656e74206f776e656044820152603960f91b60648201526084016105bf565b336001600160a01b038216148061067857506106788133610479565b6106ea5760405162461bcd60e51b815260206004820152603860248201527f4552433732313a20617070726f76652063616c6c6572206973206e6f74206f7760448201527f6e6572206e6f7220617070726f76656420666f7220616c6c000000000000000060648201526084016105bf565b6106f48383610f1a565b505050565b610704335b82610f88565b6107205760405162461bcd60e51b81526004016105bf9061230e565b6106f483838361107f565b6000828152602081905260409020600101546107478133611226565b6106f4838361128a565b600061075c83610b68565b82106107be5760405162461bcd60e51b815260206004820152602b60248201527f455243373231456e756d657261626c653a206f776e657220696e646578206f7560448201526a74206f6620626f756e647360a81b60648201526084016105bf565b506001600160a01b03919091166000908152600860209081526040808320938352929052205490565b6001600160a01b03811633146108575760405162461bcd60e51b815260206004820152602f60248201527f416363657373436f6e74726f6c3a2063616e206f6e6c792072656e6f756e636560448201526e103937b632b9903337b91039b2b63360891b60648201526084016105bf565b61086182826112ac565b5050565b61088f7f65d7a28e3265b37a6474929f336521b332c1681b933f6cb9f3376673440d862a33610cb2565b610903576040805162461bcd60e51b81526020600482015260248101919091527f4552433732315072657365744d696e7465725061757365724175746f49643a2060448201527f6d75737420686176652070617573657220726f6c6520746f20756e706175736560648201526084016105bf565b61090b6112ce565b565b6106f483838360405180602001604052806000815250610d0d565b610931336106fe565b6109965760405162461bcd60e51b815260206004820152603060248201527f4552433732314275726e61626c653a2063616c6c6572206973206e6f74206f7760448201526f1b995c881b9bdc88185c1c1c9bdd995960821b60648201526084016105bf565b61099f81611361565b50565b60006109ad600a5490565b8210610a105760405162461bcd60e51b815260206004820152602c60248201527f455243373231456e756d657261626c653a20676c6f62616c20696e646578206f60448201526b7574206f6620626f756e647360a01b60648201526084016105bf565b600a8281548110610a2357610a2361235f565b90600052602060002001549050919050565b6000818152600460205260408120546001600160a01b0316806104b25760405162461bcd60e51b815260206004820152602960248201527f4552433732313a206f776e657220717565727920666f72206e6f6e657869737460448201526832b73a103a37b5b2b760b91b60648201526084016105bf565b610ad67f9f2df0fed2c77648de5860a4cc508cd0818c85b8b8a1ab4ceeef8d981c8956a633610cb2565b610b485760405162461bcd60e51b815260206004820152603d60248201527f4552433732315072657365744d696e7465725061757365724175746f49643a2060448201527f6d7573742068617665206d696e74657220726f6c6520746f206d696e7400000060648201526084016105bf565b610b5a81610b55600d5490565b611408565b61099f600d80546001019055565b60006001600160a01b038216610bd35760405162461bcd60e51b815260206004820152602a60248201527f4552433732313a2062616c616e636520717565727920666f7220746865207a65604482015269726f206164647265737360b01b60648201526084016105bf565b506001600160a01b031660009081526005602052604090205490565b610c197f65d7a28e3265b37a6474929f336521b332c1681b933f6cb9f3376673440d862a33610cb2565b610c8b5760405162461bcd60e51b815260206004820152603e60248201527f4552433732315072657365744d696e7465725061757365724175746f49643a2060448201527f6d75737420686176652070617573657220726f6c6520746f207061757365000060648201526084016105bf565b61090b611556565b6000828152600160205260408120610cab90836115d1565b9392505050565b6000918252602082815260408084206001600160a01b0393909316845291905290205460ff1690565b6060600380546104c7906122d4565b6108613383836115dd565b61090b33610d02600a5490565b610b5590600161238b565b610d173383610f88565b610d335760405162461bcd60e51b81526004016105bf9061230e565b610d3f848484846116ab565b50505050565b6000818152600460205260409020546060906001600160a01b0316610dc45760405162461bcd60e51b815260206004820152602f60248201527f4552433732314d657461646174613a2055524920717565727920666f72206e6f60448201526e3732bc34b9ba32b73a103a37b5b2b760891b60648201526084016105bf565b6000610dce6116de565b90506000815111610dee5760405180602001604052806000815250610cab565b80610df8846116ed565b604051602001610e099291906123a3565b6040516020818303038152906040529392505050565b60008181526001602052604081206104b2906117ee565b600082815260208190526040902060010154610e528133611226565b6106f483836112ac565b610e668282610cb2565b610861576000828152602081815260408083206001600160a01b03851684529091529020805460ff19166001179055610e9c3390565b6001600160a01b0316816001600160a01b0316837f2f8788117e7eff1d82e926ec794901d17c78024a50270940304540a733656f0d60405160405180910390a45050565b6000610cab836001600160a01b0384166117f8565b60006001600160e01b0319821663780e9d6360e01b14806104b257506104b282611847565b600081815260066020526040902080546001600160a01b0319166001600160a01b0384169081179091558190610f4f82610a35565b6001600160a01b03167f8c5be1e5ebec7d5bd14f71427d1e84f3dd0314c0f7b2291e5b200ac8c7c3b92560405160405180910390a45050565b6000818152600460205260408120546001600160a01b03166110015760405162461bcd60e51b815260206004820152602c60248201527f4552433732313a206f70657261746f7220717565727920666f72206e6f6e657860448201526b34b9ba32b73a103a37b5b2b760a11b60648201526084016105bf565b600061100c83610a35565b9050806001600160a01b0316846001600160a01b031614806110475750836001600160a01b031661103c8461054a565b6001600160a01b0316145b8061107757506001600160a01b0380821660009081526007602090815260408083209388168352929052205460ff165b949350505050565b826001600160a01b031661109282610a35565b6001600160a01b0316146110f65760405162461bcd60e51b815260206004820152602560248201527f4552433732313a207472616e736665722066726f6d20696e636f72726563742060448201526437bbb732b960d91b60648201526084016105bf565b6001600160a01b0382166111585760405162461bcd60e51b8152602060048201526024808201527f4552433732313a207472616e7366657220746f20746865207a65726f206164646044820152637265737360e01b60648201526084016105bf565b611163838383611887565b61116e600082610f1a565b6001600160a01b03831660009081526005602052604081208054600192906111979084906123d2565b90915550506001600160a01b03821660009081526005602052604081208054600192906111c590849061238b565b909155505060008181526004602052604080822080546001600160a01b0319166001600160a01b0386811691821790925591518493918716917fddf252ad1be2c89b69c2b068fc378daa952ba7f163c4a11628f55a4df523b3ef91a4505050565b6112308282610cb2565b61086157611248816001600160a01b03166014611892565b611253836020611892565b6040516020016112649291906123e9565b60408051601f198184030181529082905262461bcd60e51b82526105bf91600401612065565b6112948282610e5c565b60008281526001602052604090206106f49082610ee0565b6112b68282611a2e565b60008281526001602052604090206106f49082611a93565b600c5460ff166113175760405162461bcd60e51b815260206004820152601460248201527314185d5cd8589b194e881b9bdd081c185d5cd95960621b60448201526064016105bf565b600c805460ff191690557f5db9ee0a495bf2e6ff9c91a7834c1ba4fdd244a5e8aa4e537bd38aeae4b073aa335b6040516001600160a01b03909116815260200160405180910390a1565b600061136c82610a35565b905061137a81600084611887565b611385600083610f1a565b6001600160a01b03811660009081526005602052604081208054600192906113ae9084906123d2565b909155505060008281526004602052604080822080546001600160a01b0319169055518391906001600160a01b038416907fddf252ad1be2c89b69c2b068fc378daa952ba7f163c4a11628f55a4df523b3ef908390a45050565b6001600160a01b03821661145e5760405162461bcd60e51b815260206004820181905260248201527f4552433732313a206d696e7420746f20746865207a65726f206164647265737360448201526064016105bf565b6000818152600460205260409020546001600160a01b0316156114c35760405162461bcd60e51b815260206004820152601c60248201527f4552433732313a20746f6b656e20616c7265616479206d696e7465640000000060448201526064016105bf565b6114cf60008383611887565b6001600160a01b03821660009081526005602052604081208054600192906114f890849061238b565b909155505060008181526004602052604080822080546001600160a01b0319166001600160a01b03861690811790915590518392907fddf252ad1be2c89b69c2b068fc378daa952ba7f163c4a11628f55a4df523b3ef908290a45050565b600c5460ff161561159c5760405162461bcd60e51b815260206004820152601060248201526f14185d5cd8589b194e881c185d5cd95960821b60448201526064016105bf565b600c805460ff191660011790557f62e78cea01bee320cd4e420270b5ea74000d11b0c9f74754ebdbfc544b05a2586113443390565b6000610cab8383611aa8565b816001600160a01b0316836001600160a01b03160361163e5760405162461bcd60e51b815260206004820152601960248201527f4552433732313a20617070726f766520746f2063616c6c65720000000000000060448201526064016105bf565b6001600160a01b03838116600081815260076020908152604080832094871680845294825291829020805460ff191686151590811790915591519182527f17307eab39ab6107e8899845ad3d59bd9653f200f220920489ca2b5937696c31910160405180910390a3505050565b6116b684848461107f565b6116c284848484611ad2565b610d3f5760405162461bcd60e51b81526004016105bf9061245e565b6060600e80546104c7906122d4565b6060816000036117145750506040805180820190915260018152600360fc1b602082015290565b8160005b811561173e5780611728816124b0565b91506117379050600a836124df565b9150611718565b60008167ffffffffffffffff811115611759576117596121b8565b6040519080825280601f01601f191660200182016040528015611783576020820181803683370190505b5090505b8415611077576117986001836123d2565b91506117a5600a866124f3565b6117b090603061238b565b60f81b8183815181106117c5576117c561235f565b60200101906001600160f81b031916908160001a9053506117e7600a866124df565b9450611787565b60006104b2825490565b600081815260018301602052604081205461183f575081546001818101845560008481526020808220909301849055845484825282860190935260409020919091556104b2565b5060006104b2565b60006001600160e01b031982166380ac58cd60e01b148061187857506001600160e01b03198216635b5e139f60e01b145b806104b257506104b282611bd3565b6106f4838383611bf8565b606060006118a1836002612507565b6118ac90600261238b565b67ffffffffffffffff8111156118c4576118c46121b8565b6040519080825280601f01601f1916602001820160405280156118ee576020820181803683370190505b509050600360fc1b816000815181106119095761190961235f565b60200101906001600160f81b031916908160001a905350600f60fb1b816001815181106119385761193861235f565b60200101906001600160f81b031916908160001a905350600061195c846002612507565b61196790600161238b565b90505b60018111156119df576f181899199a1a9b1b9c1cb0b131b232b360811b85600f166010811061199b5761199b61235f565b1a60f81b8282815181106119b1576119b161235f565b60200101906001600160f81b031916908160001a90535060049490941c936119d881612526565b905061196a565b508315610cab5760405162461bcd60e51b815260206004820181905260248201527f537472696e67733a20686578206c656e67746820696e73756666696369656e7460448201526064016105bf565b611a388282610cb2565b15610861576000828152602081815260408083206001600160a01b0385168085529252808320805460ff1916905551339285917ff6391f5c32d9c69d2a47ea670b442974b53935d1edc7fd64eb21e047a839171b9190a45050565b6000610cab836001600160a01b038416611c6a565b6000826000018281548110611abf57611abf61235f565b9060005260206000200154905092915050565b60006001600160a01b0384163b15611bc857604051630a85bd0160e11b81526001600160a01b0385169063150b7a0290611b1690339089908890889060040161253d565b6020604051808303816000875af1925050508015611b51575060408051601f3d908101601f19168201909252611b4e9181019061257a565b60015b611bae573d808015611b7f576040519150601f19603f3d011682016040523d82523d6000602084013e611b84565b606091505b508051600003611ba65760405162461bcd60e51b81526004016105bf9061245e565b805181602001fd5b6001600160e01b031916630a85bd0160e11b149050611077565b506001949350505050565b60006001600160e01b03198216635a05180f60e01b14806104b257506104b282611d5d565b611c03838383611d92565b600c5460ff16156106f45760405162461bcd60e51b815260206004820152602b60248201527f4552433732315061757361626c653a20746f6b656e207472616e73666572207760448201526a1a1a5b19481c185d5cd95960aa1b60648201526084016105bf565b60008181526001830160205260408120548015611d53576000611c8e6001836123d2565b8554909150600090611ca2906001906123d2565b9050818114611d07576000866000018281548110611cc257611cc261235f565b9060005260206000200154905080876000018481548110611ce557611ce561235f565b6000918252602080832090910192909255918252600188019052604090208390555b8554869080611d1857611d18612597565b6001900381819060005260206000200160009055905585600101600086815260200190815260200160002060009055600193505050506104b2565b60009150506104b2565b60006001600160e01b03198216637965db0b60e01b14806104b257506301ffc9a760e01b6001600160e01b03198316146104b2565b6001600160a01b038316611ded57611de881600a80546000838152600b60205260408120829055600182018355919091527fc65a7bb8d6351c1cf70c95a316cc6a92839c986682d98bc35f958f4883f9d2a80155565b611e10565b816001600160a01b0316836001600160a01b031614611e1057611e108382611e4a565b6001600160a01b038216611e27576106f481611ee7565b826001600160a01b0316826001600160a01b0316146106f4576106f48282611f96565b60006001611e5784610b68565b611e6191906123d2565b600083815260096020526040902054909150808214611eb4576001600160a01b03841660009081526008602090815260408083208584528252808320548484528184208190558352600990915290208190555b5060009182526009602090815260408084208490556001600160a01b039094168352600881528383209183525290812055565b600a54600090611ef9906001906123d2565b6000838152600b6020526040812054600a8054939450909284908110611f2157611f2161235f565b9060005260206000200154905080600a8381548110611f4257611f4261235f565b6000918252602080832090910192909255828152600b9091526040808220849055858252812055600a805480611f7a57611f7a612597565b6001900381819060005260206000200160009055905550505050565b6000611fa183610b68565b6001600160a01b039093166000908152600860209081526040808320868452825280832085905593825260099052919091209190915550565b6001600160e01b03198116811461099f57600080fd5b60006020828403121561200257600080fd5b8135610cab81611fda565b60005b83811015612028578181015183820152602001612010565b83811115610d3f5750506000910152565b6000815180845261205181602086016020860161200d565b601f01601f19169290920160200192915050565b602081526000610cab6020830184612039565b60006020828403121561208a57600080fd5b5035919050565b80356001600160a01b03811681146120a857600080fd5b919050565b600080604083850312156120c057600080fd5b6120c983612091565b946020939093013593505050565b6000806000606084860312156120ec57600080fd5b6120f584612091565b925061210360208501612091565b9150604084013590509250925092565b6000806040838503121561212657600080fd5b8235915061213660208401612091565b90509250929050565b60006020828403121561215157600080fd5b610cab82612091565b6000806040838503121561216d57600080fd5b50508035926020909101359150565b6000806040838503121561218f57600080fd5b61219883612091565b9150602083013580151581146121ad57600080fd5b809150509250929050565b634e487b7160e01b600052604160045260246000fd5b600080600080608085870312156121e457600080fd5b6121ed85612091565b93506121fb60208601612091565b925060408501359150606085013567ffffffffffffffff8082111561221f57600080fd5b818701915087601f83011261223357600080fd5b813581811115612245576122456121b8565b604051601f8201601f19908116603f0116810190838211818310171561226d5761226d6121b8565b816040528281528a602084870101111561228657600080fd5b82602086016020830137600060208483010152809550505050505092959194509250565b600080604083850312156122bd57600080fd5b6122c683612091565b915061213660208401612091565b600181811c908216806122e857607f821691505b60208210810361230857634e487b7160e01b600052602260045260246000fd5b50919050565b60208082526031908201527f4552433732313a207472616e736665722063616c6c6572206973206e6f74206f6040820152701ddb995c881b9bdc88185c1c1c9bdd9959607a1b606082015260800190565b634e487b7160e01b600052603260045260246000fd5b634e487b7160e01b600052601160045260246000fd5b6000821982111561239e5761239e612375565b500190565b600083516123b581846020880161200d565b8351908301906123c981836020880161200d565b01949350505050565b6000828210156123e4576123e4612375565b500390565b7f416363657373436f6e74726f6c3a206163636f756e742000000000000000000081526000835161242181601785016020880161200d565b7001034b99036b4b9b9b4b733903937b6329607d1b601791840191820152835161245281602884016020880161200d565b01602801949350505050565b60208082526032908201527f4552433732313a207472616e7366657220746f206e6f6e20455243373231526560408201527131b2b4bb32b91034b6b83632b6b2b73a32b960711b606082015260800190565b6000600182016124c2576124c2612375565b5060010190565b634e487b7160e01b600052601260045260246000fd5b6000826124ee576124ee6124c9565b500490565b600082612502576125026124c9565b500690565b600081600019048311821515161561252157612521612375565b500290565b60008161253557612535612375565b506000190190565b6001600160a01b038581168252841660208201526040810183905260806060820181905260009061257090830184612039565b9695505050505050565b60006020828403121561258c57600080fd5b8151610cab81611fda565b634e487b7160e01b600052603160045260246000fdfea26469706673582212203dda1eb5bd3fb8a271e8cf99c753b794202513d34f676124a7a174028ff56ec864736f6c634300080d0033",
  "immutableReferences": {},
  "source": "pragma solidity ^0.8.12;\nimport \"@openzeppelin/contracts/token/ERC721/presets/ERC721PresetMinterPauserAutoId.sol\";\nimport \"@openzeppelin/contracts/token/ERC721/IERC721.sol\";\nimport \"@openzeppelin/contracts/utils/Strings.sol\";\n\ncontract FakeNFT is ERC721PresetMinterPauserAutoId {\n    constructor(\n        string memory name,\n        string memory symbol,\n        string memory uriRoot\n    ) ERC721PresetMinterPauserAutoId(name, symbol, uriRoot) {}\n\n    function buy() public {\n        _mint(msg.sender, totalSupply() + 1);\n    }\n}\n",
  "sourcePath": "/Users/robertrinearson/Documents/blockchain/lfg/cyberdeck-twitter/src/contracts/FakeNFT.sol",
  "compiler": {
    "name": "solc",
    "version": "0.8.13+commit.abaa5c0e.Emscripten.clang"
  },
  "schemaVersion": "3.4.3",
  "updatedAt": "2022-04-06T00:59:37.872Z",
  "networkType": "ethereum",
  "devdoc": {
    "kind": "dev",
    "methods": {
      "approve(address,uint256)": {
        "details": "See {IERC721-approve}."
      },
      "balanceOf(address)": {
        "details": "See {IERC721-balanceOf}."
      },
      "burn(uint256)": {
        "details": "Burns `tokenId`. See {ERC721-_burn}. Requirements: - The caller must own `tokenId` or be an approved operator."
      },
      "getApproved(uint256)": {
        "details": "See {IERC721-getApproved}."
      },
      "getRoleAdmin(bytes32)": {
        "details": "Returns the admin role that controls `role`. See {grantRole} and {revokeRole}. To change a role's admin, use {_setRoleAdmin}."
      },
      "getRoleMember(bytes32,uint256)": {
        "details": "Returns one of the accounts that have `role`. `index` must be a value between 0 and {getRoleMemberCount}, non-inclusive. Role bearers are not sorted in any particular way, and their ordering may change at any point. WARNING: When using {getRoleMember} and {getRoleMemberCount}, make sure you perform all queries on the same block. See the following https://forum.openzeppelin.com/t/iterating-over-elements-on-enumerableset-in-openzeppelin-contracts/2296[forum post] for more information."
      },
      "getRoleMemberCount(bytes32)": {
        "details": "Returns the number of accounts that have `role`. Can be used together with {getRoleMember} to enumerate all bearers of a role."
      },
      "grantRole(bytes32,address)": {
        "details": "Grants `role` to `account`. If `account` had not been already granted `role`, emits a {RoleGranted} event. Requirements: - the caller must have ``role``'s admin role."
      },
      "hasRole(bytes32,address)": {
        "details": "Returns `true` if `account` has been granted `role`."
      },
      "isApprovedForAll(address,address)": {
        "details": "See {IERC721-isApprovedForAll}."
      },
      "mint(address)": {
        "details": "Creates a new token for `to`. Its token ID will be automatically assigned (and available on the emitted {IERC721-Transfer} event), and the token URI autogenerated based on the base URI passed at construction. See {ERC721-_mint}. Requirements: - the caller must have the `MINTER_ROLE`."
      },
      "name()": {
        "details": "See {IERC721Metadata-name}."
      },
      "ownerOf(uint256)": {
        "details": "See {IERC721-ownerOf}."
      },
      "pause()": {
        "details": "Pauses all token transfers. See {ERC721Pausable} and {Pausable-_pause}. Requirements: - the caller must have the `PAUSER_ROLE`."
      },
      "paused()": {
        "details": "Returns true if the contract is paused, and false otherwise."
      },
      "renounceRole(bytes32,address)": {
        "details": "Revokes `role` from the calling account. Roles are often managed via {grantRole} and {revokeRole}: this function's purpose is to provide a mechanism for accounts to lose their privileges if they are compromised (such as when a trusted device is misplaced). If the calling account had been revoked `role`, emits a {RoleRevoked} event. Requirements: - the caller must be `account`."
      },
      "revokeRole(bytes32,address)": {
        "details": "Revokes `role` from `account`. If `account` had been granted `role`, emits a {RoleRevoked} event. Requirements: - the caller must have ``role``'s admin role."
      },
      "safeTransferFrom(address,address,uint256)": {
        "details": "See {IERC721-safeTransferFrom}."
      },
      "safeTransferFrom(address,address,uint256,bytes)": {
        "details": "See {IERC721-safeTransferFrom}."
      },
      "setApprovalForAll(address,bool)": {
        "details": "See {IERC721-setApprovalForAll}."
      },
      "supportsInterface(bytes4)": {
        "details": "See {IERC165-supportsInterface}."
      },
      "symbol()": {
        "details": "See {IERC721Metadata-symbol}."
      },
      "tokenByIndex(uint256)": {
        "details": "See {IERC721Enumerable-tokenByIndex}."
      },
      "tokenOfOwnerByIndex(address,uint256)": {
        "details": "See {IERC721Enumerable-tokenOfOwnerByIndex}."
      },
      "tokenURI(uint256)": {
        "details": "See {IERC721Metadata-tokenURI}."
      },
      "totalSupply()": {
        "details": "See {IERC721Enumerable-totalSupply}."
      },
      "transferFrom(address,address,uint256)": {
        "details": "See {IERC721-transferFrom}."
      },
      "unpause()": {
        "details": "Unpauses all token transfers. See {ERC721Pausable} and {Pausable-_unpause}. Requirements: - the caller must have the `PAUSER_ROLE`."
      }
    },
    "version": 1
  },
  "userdoc": {
    "kind": "user",
    "methods": {},
    "version": 1
  }
}