{
  "contractName": "URIRouter",
  "abi": [
    {
      "inputs": [
        {
          "internalType": "address",
          "name": "_cyberDeckAddress",
          "type": "address"
        }
      ],
      "stateMutability": "nonpayable",
      "type": "constructor"
    },
    {
      "anonymous": false,
      "inputs": [
        {
          "indexed": true,
          "internalType": "bytes32",
          "name": "role",
          "type": "bytes32"
        },
        {
          "indexed": true,
          "internalType": "bytes32",
          "name": "previousAdminRole",
          "type": "bytes32"
        },
        {
          "indexed": true,
          "internalType": "bytes32",
          "name": "newAdminRole",
          "type": "bytes32"
        }
      ],
      "name": "RoleAdminChanged",
      "type": "event"
    },
    {
      "anonymous": false,
      "inputs": [
        {
          "indexed": true,
          "internalType": "bytes32",
          "name": "role",
          "type": "bytes32"
        },
        {
          "indexed": true,
          "internalType": "address",
          "name": "account",
          "type": "address"
        },
        {
          "indexed": true,
          "internalType": "address",
          "name": "sender",
          "type": "address"
        }
      ],
      "name": "RoleGranted",
      "type": "event"
    },
    {
      "anonymous": false,
      "inputs": [
        {
          "indexed": true,
          "internalType": "bytes32",
          "name": "role",
          "type": "bytes32"
        },
        {
          "indexed": true,
          "internalType": "address",
          "name": "account",
          "type": "address"
        },
        {
          "indexed": true,
          "internalType": "address",
          "name": "sender",
          "type": "address"
        }
      ],
      "name": "RoleRevoked",
      "type": "event"
    },
    {
      "inputs": [],
      "name": "DEFAULT_ADMIN_ROLE",
      "outputs": [
        {
          "internalType": "bytes32",
          "name": "",
          "type": "bytes32"
        }
      ],
      "stateMutability": "view",
      "type": "function",
      "constant": true
    },
    {
      "inputs": [
        {
          "internalType": "bytes32",
          "name": "role",
          "type": "bytes32"
        }
      ],
      "name": "getRoleAdmin",
      "outputs": [
        {
          "internalType": "bytes32",
          "name": "",
          "type": "bytes32"
        }
      ],
      "stateMutability": "view",
      "type": "function",
      "constant": true
    },
    {
      "inputs": [
        {
          "internalType": "bytes32",
          "name": "role",
          "type": "bytes32"
        },
        {
          "internalType": "uint256",
          "name": "index",
          "type": "uint256"
        }
      ],
      "name": "getRoleMember",
      "outputs": [
        {
          "internalType": "address",
          "name": "",
          "type": "address"
        }
      ],
      "stateMutability": "view",
      "type": "function",
      "constant": true
    },
    {
      "inputs": [
        {
          "internalType": "bytes32",
          "name": "role",
          "type": "bytes32"
        }
      ],
      "name": "getRoleMemberCount",
      "outputs": [
        {
          "internalType": "uint256",
          "name": "",
          "type": "uint256"
        }
      ],
      "stateMutability": "view",
      "type": "function",
      "constant": true
    },
    {
      "inputs": [
        {
          "internalType": "bytes32",
          "name": "role",
          "type": "bytes32"
        },
        {
          "internalType": "address",
          "name": "account",
          "type": "address"
        }
      ],
      "name": "grantRole",
      "outputs": [],
      "stateMutability": "nonpayable",
      "type": "function"
    },
    {
      "inputs": [
        {
          "internalType": "bytes32",
          "name": "role",
          "type": "bytes32"
        },
        {
          "internalType": "address",
          "name": "account",
          "type": "address"
        }
      ],
      "name": "hasRole",
      "outputs": [
        {
          "internalType": "bool",
          "name": "",
          "type": "bool"
        }
      ],
      "stateMutability": "view",
      "type": "function",
      "constant": true
    },
    {
      "inputs": [
        {
          "internalType": "bytes32",
          "name": "role",
          "type": "bytes32"
        },
        {
          "internalType": "address",
          "name": "account",
          "type": "address"
        }
      ],
      "name": "renounceRole",
      "outputs": [],
      "stateMutability": "nonpayable",
      "type": "function"
    },
    {
      "inputs": [
        {
          "internalType": "bytes32",
          "name": "role",
          "type": "bytes32"
        },
        {
          "internalType": "address",
          "name": "account",
          "type": "address"
        }
      ],
      "name": "revokeRole",
      "outputs": [],
      "stateMutability": "nonpayable",
      "type": "function"
    },
    {
      "inputs": [
        {
          "internalType": "bytes4",
          "name": "interfaceId",
          "type": "bytes4"
        }
      ],
      "name": "supportsInterface",
      "outputs": [
        {
          "internalType": "bool",
          "name": "",
          "type": "bool"
        }
      ],
      "stateMutability": "view",
      "type": "function",
      "constant": true
    },
    {
      "inputs": [
        {
          "internalType": "uint256",
          "name": "_tId",
          "type": "uint256"
        }
      ],
      "name": "tokenURI",
      "outputs": [
        {
          "internalType": "string",
          "name": "",
          "type": "string"
        }
      ],
      "stateMutability": "view",
      "type": "function",
      "constant": true
    },
    {
      "inputs": [
        {
          "internalType": "address",
          "name": "_nftAddress",
          "type": "address"
        },
        {
          "internalType": "string",
          "name": "_root",
          "type": "string"
        }
      ],
      "name": "addIpfsURIRoot",
      "outputs": [],
      "stateMutability": "nonpayable",
      "type": "function"
    }
  ],
  "bytecode": "0x61010060405260426080818152906200130460a03980516200002a91600491602090910190620001f3565b503480156200003857600080fd5b5060405162001346380380620013468339810160408190526200005b9162000299565b620000686000336200008e565b600380546001600160a01b0319166001600160a01b039290921691909117905562000307565b6200009a82826200009e565b5050565b620000b58282620000e160201b620006501760201c565b6000828152600160209081526040909120620000dc918390620006d462000181821b17901c565b505050565b6000828152602081815260408083206001600160a01b038516845290915290205460ff166200009a576000828152602081815260408083206001600160a01b03851684529091529020805460ff191660011790556200013d3390565b6001600160a01b0316816001600160a01b0316837f2f8788117e7eff1d82e926ec794901d17c78024a50270940304540a733656f0d60405160405180910390a45050565b600062000198836001600160a01b038416620001a1565b90505b92915050565b6000818152600183016020526040812054620001ea575081546001818101845560008481526020808220909301849055845484825282860190935260409020919091556200019b565b5060006200019b565b8280546200020190620002cb565b90600052602060002090601f01602090048101928262000225576000855562000270565b82601f106200024057805160ff191683800117855562000270565b8280016001018555821562000270579182015b828111156200027057825182559160200191906001019062000253565b506200027e92915062000282565b5090565b5b808211156200027e576000815560010162000283565b600060208284031215620002ac57600080fd5b81516001600160a01b0381168114620002c457600080fd5b9392505050565b600181811c90821680620002e057607f821691505b6020821081036200030157634e487b7160e01b600052602260045260246000fd5b50919050565b610fed80620003176000396000f3fe608060405234801561001057600080fd5b50600436106100a95760003560e01c80639010d07c116100715780639010d07c1461014257806391d148541461016d578063a217fddf14610180578063c87b56dd14610188578063ca15c873146101a8578063d547741f146101bb57600080fd5b806301ffc9a7146100ae578063248a9ca3146100d65780632f2ff15d1461010757806336568abe1461011c578063767aac801461012f575b600080fd5b6100c16100bc366004610bf7565b6101ce565b60405190151581526020015b60405180910390f35b6100f96100e4366004610c21565b60009081526020819052604090206001015490565b6040519081526020016100cd565b61011a610115366004610c52565b6101f9565b005b61011a61012a366004610c52565b610224565b61011a61013d366004610c98565b6102a7565b610155610150366004610d5c565b610335565b6040516001600160a01b0390911681526020016100cd565b6100c161017b366004610c52565b610354565b6100f9600081565b61019b610196366004610c21565b61037d565b6040516100cd9190610dae565b6100f96101b6366004610c21565b610613565b61011a6101c9366004610c52565b61062a565b60006001600160e01b03198216635a05180f60e01b14806101f357506101f3826106e9565b92915050565b600082815260208190526040902060010154610215813361071e565b61021f8383610782565b505050565b6001600160a01b03811633146102995760405162461bcd60e51b815260206004820152602f60248201527f416363657373436f6e74726f6c3a2063616e206f6e6c792072656e6f756e636560448201526e103937b632b9903337b91039b2b63360891b60648201526084015b60405180910390fd5b6102a382826107a4565b5050565b6102b2600033610354565b61030c5760405162461bcd60e51b815260206004820152602560248201527f596f7520646f6e27742068617665207065726d697373696f6e20746f20646f206044820152643a3434b99760d91b6064820152608401610290565b6001600160a01b0382166000908152600260209081526040909120825161021f92840190610b5e565b600082815260016020526040812061034d90836107c6565b9392505050565b6000918252602082815260408084206001600160a01b0393909316845291905290205460ff1690565b600354604051634f558e7960e01b8152600481018390526060916001600160a01b031690634f558e7990602401602060405180830381865afa1580156103c7573d6000803e3d6000fd5b505050506040513d601f19601f820116820180604052508101906103eb9190610de1565b61042e5760405162461bcd60e51b8152602060048201526014602482015273151bdad95b88191bd95cc81b9bdd08195e1a5cdd60621b6044820152606401610290565b60035460405163aadd01ab60e01b81526004810184905260009182916001600160a01b039091169063aadd01ab906024016040805180830381865afa15801561047b573d6000803e3d6000fd5b505050506040513d601f19601f8201168201806040525081019061049f9190610e03565b6001600160a01b03821660009081526002602052604081208054939550919350916104c990610e31565b80601f01602080910402602001604051908101604052809291908181526020018280546104f590610e31565b80156105425780601f1061051757610100808354040283529160200191610542565b820191906000526020600020905b81548152906001019060200180831161052557829003601f168201915b5050505050905080516000036105e7576004805461055f90610e31565b80601f016020809104026020016040519081016040528092919081815260200182805461058b90610e31565b80156105d85780601f106105ad576101008083540402835291602001916105d8565b820191906000526020600020905b8154815290600101906020018083116105bb57829003601f168201915b50505050509350505050919050565b80826040516020016105fa929190610e6b565b6040516020818303038152906040529350505050919050565b60008181526001602052604081206101f3906107d2565b600082815260208190526040902060010154610646813361071e565b61021f83836107a4565b61065a8282610354565b6102a3576000828152602081815260408083206001600160a01b03851684529091529020805460ff191660011790556106903390565b6001600160a01b0316816001600160a01b0316837f2f8788117e7eff1d82e926ec794901d17c78024a50270940304540a733656f0d60405160405180910390a45050565b600061034d836001600160a01b0384166107dc565b60006001600160e01b03198216637965db0b60e01b14806101f357506301ffc9a760e01b6001600160e01b03198316146101f3565b6107288282610354565b6102a357610740816001600160a01b0316601461082b565b61074b83602061082b565b60405160200161075c929190610e9b565b60408051601f198184030181529082905262461bcd60e51b825261029091600401610dae565b61078c8282610650565b600082815260016020526040902061021f90826106d4565b6107ae82826109c7565b600082815260016020526040902061021f9082610a2c565b600061034d8383610a41565b60006101f3825490565b6000818152600183016020526040812054610823575081546001818101845560008481526020808220909301849055845484825282860190935260409020919091556101f3565b5060006101f3565b6060600061083a836002610f26565b610845906002610f45565b67ffffffffffffffff81111561085d5761085d610c82565b6040519080825280601f01601f191660200182016040528015610887576020820181803683370190505b509050600360fc1b816000815181106108a2576108a2610f5d565b60200101906001600160f81b031916908160001a905350600f60fb1b816001815181106108d1576108d1610f5d565b60200101906001600160f81b031916908160001a90535060006108f5846002610f26565b610900906001610f45565b90505b6001811115610978576f181899199a1a9b1b9c1cb0b131b232b360811b85600f166010811061093457610934610f5d565b1a60f81b82828151811061094a5761094a610f5d565b60200101906001600160f81b031916908160001a90535060049490941c9361097181610f73565b9050610903565b50831561034d5760405162461bcd60e51b815260206004820181905260248201527f537472696e67733a20686578206c656e67746820696e73756666696369656e746044820152606401610290565b6109d18282610354565b156102a3576000828152602081815260408083206001600160a01b0385168085529252808320805460ff1916905551339285917ff6391f5c32d9c69d2a47ea670b442974b53935d1edc7fd64eb21e047a839171b9190a45050565b600061034d836001600160a01b038416610a6b565b6000826000018281548110610a5857610a58610f5d565b9060005260206000200154905092915050565b60008181526001830160205260408120548015610b54576000610a8f600183610f8a565b8554909150600090610aa390600190610f8a565b9050818114610b08576000866000018281548110610ac357610ac3610f5d565b9060005260206000200154905080876000018481548110610ae657610ae6610f5d565b6000918252602080832090910192909255918252600188019052604090208390555b8554869080610b1957610b19610fa1565b6001900381819060005260206000200160009055905585600101600086815260200190815260200160002060009055600193505050506101f3565b60009150506101f3565b828054610b6a90610e31565b90600052602060002090601f016020900481019282610b8c5760008555610bd2565b82601f10610ba557805160ff1916838001178555610bd2565b82800160010185558215610bd2579182015b82811115610bd2578251825591602001919060010190610bb7565b50610bde929150610be2565b5090565b5b80821115610bde5760008155600101610be3565b600060208284031215610c0957600080fd5b81356001600160e01b03198116811461034d57600080fd5b600060208284031215610c3357600080fd5b5035919050565b6001600160a01b0381168114610c4f57600080fd5b50565b60008060408385031215610c6557600080fd5b823591506020830135610c7781610c3a565b809150509250929050565b634e487b7160e01b600052604160045260246000fd5b60008060408385031215610cab57600080fd5b8235610cb681610c3a565b9150602083013567ffffffffffffffff80821115610cd357600080fd5b818501915085601f830112610ce757600080fd5b813581811115610cf957610cf9610c82565b604051601f8201601f19908116603f01168101908382118183101715610d2157610d21610c82565b81604052828152886020848701011115610d3a57600080fd5b8260208601602083013760006020848301015280955050505050509250929050565b60008060408385031215610d6f57600080fd5b50508035926020909101359150565b60005b83811015610d99578181015183820152602001610d81565b83811115610da8576000848401525b50505050565b6020815260008251806020840152610dcd816040850160208701610d7e565b601f01601f19169190910160400192915050565b600060208284031215610df357600080fd5b8151801515811461034d57600080fd5b60008060408385031215610e1657600080fd5b8251610e2181610c3a565b6020939093015192949293505050565b600181811c90821680610e4557607f821691505b602082108103610e6557634e487b7160e01b600052602260045260246000fd5b50919050565b60008351610e7d818460208801610d7e565b919091019182525064173539b7b760d91b6020820152602501919050565b7f416363657373436f6e74726f6c3a206163636f756e7420000000000000000000815260008351610ed3816017850160208801610d7e565b7001034b99036b4b9b9b4b733903937b6329607d1b6017918401918201528351610f04816028840160208801610d7e565b01602801949350505050565b634e487b7160e01b600052601160045260246000fd5b6000816000190483118215151615610f4057610f40610f10565b500290565b60008219821115610f5857610f58610f10565b500190565b634e487b7160e01b600052603260045260246000fd5b600081610f8257610f82610f10565b506000190190565b600082821015610f9c57610f9c610f10565b500390565b634e487b7160e01b600052603160045260246000fdfea26469706673582212202ecc10a6b5651482320fe8a6288a96e3d502ba1e3f675b9f2966dfee6e2f5c4464736f6c634300080d0033697066733a2f2f516d62344170627a61696a4e743731535a6e33724e616961466474456b464d53637969425032747232767a3674632f64656661756c742e6a736f6e",
  "immutableReferences": {},
  "source": "pragma solidity ^0.8.12;\n\nimport \"@openzeppelin/contracts/access/AccessControlEnumerable.sol\";\nimport \"./CyberDeck.sol\";\n\ncontract URIRouter is AccessControlEnumerable {\n    mapping(address => string) ipfsURIRoots; // ipfs://a1b2c3d4/\n    CyberDeck cyberDeck;\n    string defaultURI =\n        \"ipfs://Qmb4ApbzaijNt71SZn3rNaiaFdtEkFMScyiBP2tr2vz6tc/default.json\";\n\n    constructor(address _cyberDeckAddress) {\n        _setupRole(DEFAULT_ADMIN_ROLE, _msgSender());\n        cyberDeck = CyberDeck(_cyberDeckAddress);\n    }\n\n    function tokenURI(uint256 _tId)\n        public\n        view\n        virtual\n        returns (string memory)\n    {\n        require(cyberDeck.exists(_tId), \"Token does not exist\");\n        (address tokenAddress, uint256 tokenId) = cyberDeck.parentNfts(_tId);\n        string memory baseURI = ipfsURIRoots[tokenAddress];\n        if (bytes(baseURI).length == 0) {\n            return defaultURI;\n        } else {\n            return string(abi.encodePacked(baseURI, tokenId, \".json\"));\n        }\n    }\n\n    function addIpfsURIRoot(address _nftAddress, string memory _root) public {\n        require(\n            hasRole(DEFAULT_ADMIN_ROLE, _msgSender()),\n            \"You don't have permission to do this.\"\n        );\n        ipfsURIRoots[_nftAddress] = _root;\n    }\n}\n",
  "sourcePath": "/Users/robertrinearson/Documents/blockchain/lfg/cyberdeck-twitter/src/contracts/URIRouter.sol",
  "compiler": {
    "name": "solc",
    "version": "0.8.13+commit.abaa5c0e.Emscripten.clang"
  },
  "schemaVersion": "3.4.3",
  "updatedAt": "2022-04-09T22:55:43.551Z",
  "networkType": "ethereum",
  "devdoc": {
    "kind": "dev",
    "methods": {
      "getRoleAdmin(bytes32)": {
        "details": "Returns the admin role that controls `role`. See {grantRole} and {revokeRole}. To change a role's admin, use {_setRoleAdmin}."
      },
      "getRoleMember(bytes32,uint256)": {
        "details": "Returns one of the accounts that have `role`. `index` must be a value between 0 and {getRoleMemberCount}, non-inclusive. Role bearers are not sorted in any particular way, and their ordering may change at any point. WARNING: When using {getRoleMember} and {getRoleMemberCount}, make sure you perform all queries on the same block. See the following https://forum.openzeppelin.com/t/iterating-over-elements-on-enumerableset-in-openzeppelin-contracts/2296[forum post] for more information."
      },
      "getRoleMemberCount(bytes32)": {
        "details": "Returns the number of accounts that have `role`. Can be used together with {getRoleMember} to enumerate all bearers of a role."
      },
      "grantRole(bytes32,address)": {
        "details": "Grants `role` to `account`. If `account` had not been already granted `role`, emits a {RoleGranted} event. Requirements: - the caller must have ``role``'s admin role."
      },
      "hasRole(bytes32,address)": {
        "details": "Returns `true` if `account` has been granted `role`."
      },
      "renounceRole(bytes32,address)": {
        "details": "Revokes `role` from the calling account. Roles are often managed via {grantRole} and {revokeRole}: this function's purpose is to provide a mechanism for accounts to lose their privileges if they are compromised (such as when a trusted device is misplaced). If the calling account had been revoked `role`, emits a {RoleRevoked} event. Requirements: - the caller must be `account`."
      },
      "revokeRole(bytes32,address)": {
        "details": "Revokes `role` from `account`. If `account` had been granted `role`, emits a {RoleRevoked} event. Requirements: - the caller must have ``role``'s admin role."
      },
      "supportsInterface(bytes4)": {
        "details": "See {IERC165-supportsInterface}."
      }
    },
    "version": 1
  },
  "userdoc": {
    "kind": "user",
    "methods": {},
    "version": 1
  }
}