{
  "contractName": "Verifier",
  "abi": [
    {
      "inputs": [
        {
          "internalType": "string",
          "name": "message",
          "type": "string"
        },
        {
          "internalType": "bytes",
          "name": "signature",
          "type": "bytes"
        }
      ],
      "name": "verifyMessage",
      "outputs": [
        {
          "internalType": "address",
          "name": "",
          "type": "address"
        }
      ],
      "stateMutability": "view",
      "type": "function",
      "constant": true
    }
  ],
  "bytecode": "0x608060405234801561001057600080fd5b506105d7806100206000396000f3fe608060405234801561001057600080fd5b506004361061002b5760003560e01c8063f962a22a14610030575b600080fd5b61004361003e3660046104d6565b61005f565b6040516001600160a01b03909116815260200160405180910390f35b81516020830120600090816100cb846100c5846040517f19457468657265756d205369676e6564204d6573736167653a0a3332000000006020820152603c8101829052600090605c01604051602081830303815290604052805190602001209050919050565b906100d4565b95945050505050565b60008060006100e385856100f8565b915091506100f081610166565b509392505050565b600080825160410361012e5760208301516040840151606085015160001a61012287828585610324565b9450945050505061015f565b8251604003610157576020830151604084015161014c868383610411565b93509350505061015f565b506000905060025b9250929050565b600081600481111561017a5761017a610565565b036101825750565b600181600481111561019657610196610565565b036101e85760405162461bcd60e51b815260206004820152601860248201527f45434453413a20696e76616c6964207369676e6174757265000000000000000060448201526064015b60405180910390fd5b60028160048111156101fc576101fc610565565b036102495760405162461bcd60e51b815260206004820152601f60248201527f45434453413a20696e76616c6964207369676e6174757265206c656e6774680060448201526064016101df565b600381600481111561025d5761025d610565565b036102b55760405162461bcd60e51b815260206004820152602260248201527f45434453413a20696e76616c6964207369676e6174757265202773272076616c604482015261756560f01b60648201526084016101df565b60048160048111156102c9576102c9610565565b036103215760405162461bcd60e51b815260206004820152602260248201527f45434453413a20696e76616c6964207369676e6174757265202776272076616c604482015261756560f01b60648201526084016101df565b50565b6000807f7fffffffffffffffffffffffffffffff5d576e7357a4501ddfe92f46681b20a083111561035b5750600090506003610408565b8460ff16601b1415801561037357508460ff16601c14155b156103845750600090506004610408565b6040805160008082526020820180845289905260ff881692820192909252606081018690526080810185905260019060a0016020604051602081039080840390855afa1580156103d8573d6000803e3d6000fd5b5050604051601f1901519150506001600160a01b03811661040157600060019250925050610408565b9150600090505b94509492505050565b6000806001600160ff1b0383168161042e60ff86901c601b61057b565b905061043c87828885610324565b935093505050935093915050565b634e487b7160e01b600052604160045260246000fd5b600067ffffffffffffffff8084111561047b5761047b61044a565b604051601f8501601f19908116603f011681019082821181831017156104a3576104a361044a565b816040528093508581528686860111156104bc57600080fd5b858560208301376000602087830101525050509392505050565b600080604083850312156104e957600080fd5b823567ffffffffffffffff8082111561050157600080fd5b818501915085601f83011261051557600080fd5b61052486833560208501610460565b9350602085013591508082111561053a57600080fd5b508301601f8101851361054c57600080fd5b61055b85823560208401610460565b9150509250929050565b634e487b7160e01b600052602160045260246000fd5b6000821982111561059c57634e487b7160e01b600052601160045260246000fd5b50019056fea264697066735822122077669fd95ad34c7e1509c30de1b17493e78e10da21692befe98b867250ba428c64736f6c634300080d0033",
  "immutableReferences": {},
  "source": "pragma solidity ^0.8.12;\nimport \"@openzeppelin/contracts/utils/cryptography/ECDSA.sol\";\n\nusing ECDSA for bytes32;\n\ncontract Verifier {\n    function verifyMessage(string memory message, bytes memory signature)\n        public\n        view\n        returns (address)\n    {\n        //hash the plain text message\n        bytes32 messagehash = keccak256(bytes(message));\n\n        address signerAddress = messagehash.toEthSignedMessageHash().recover(\n            signature\n        );\n\n        return signerAddress;\n    }\n}\n",
  "sourcePath": "/Users/robertrinearson/Documents/blockchain/lfg/cyberdeck-twitter/src/contracts/Verifier.sol",
  "compiler": {
    "name": "solc",
    "version": "0.8.13+commit.abaa5c0e.Emscripten.clang"
  },
  "schemaVersion": "3.4.3",
  "updatedAt": "2022-04-09T22:55:43.554Z",
  "networkType": "ethereum",
  "devdoc": {
    "kind": "dev",
    "methods": {},
    "version": 1
  },
  "userdoc": {
    "kind": "user",
    "methods": {},
    "version": 1
  }
}