{
  "contractName": "CyberDeck",
  "abi": [
    {
      "inputs": [
        {
          "internalType": "address payable",
          "name": "treasuryAddress",
          "type": "address"
        }
      ],
      "stateMutability": "nonpayable",
      "type": "constructor"
    },
    {
      "anonymous": false,
      "inputs": [
        {
          "indexed": true,
          "internalType": "address",
          "name": "owner",
          "type": "address"
        },
        {
          "indexed": true,
          "internalType": "address",
          "name": "approved",
          "type": "address"
        },
        {
          "indexed": true,
          "internalType": "uint256",
          "name": "tokenId",
          "type": "uint256"
        }
      ],
      "name": "Approval",
      "type": "event"
    },
    {
      "anonymous": false,
      "inputs": [
        {
          "indexed": true,
          "internalType": "address",
          "name": "owner",
          "type": "address"
        },
        {
          "indexed": true,
          "internalType": "address",
          "name": "operator",
          "type": "address"
        },
        {
          "indexed": false,
          "internalType": "bool",
          "name": "approved",
          "type": "bool"
        }
      ],
      "name": "ApprovalForAll",
      "type": "event"
    },
    {
      "anonymous": false,
      "inputs": [
        {
          "indexed": false,
          "internalType": "address",
          "name": "account",
          "type": "address"
        }
      ],
      "name": "Paused",
      "type": "event"
    },
    {
      "anonymous": false,
      "inputs": [
        {
          "indexed": true,
          "internalType": "bytes32",
          "name": "role",
          "type": "bytes32"
        },
        {
          "indexed": true,
          "internalType": "bytes32",
          "name": "previousAdminRole",
          "type": "bytes32"
        },
        {
          "indexed": true,
          "internalType": "bytes32",
          "name": "newAdminRole",
          "type": "bytes32"
        }
      ],
      "name": "RoleAdminChanged",
      "type": "event"
    },
    {
      "anonymous": false,
      "inputs": [
        {
          "indexed": true,
          "internalType": "bytes32",
          "name": "role",
          "type": "bytes32"
        },
        {
          "indexed": true,
          "internalType": "address",
          "name": "account",
          "type": "address"
        },
        {
          "indexed": true,
          "internalType": "address",
          "name": "sender",
          "type": "address"
        }
      ],
      "name": "RoleGranted",
      "type": "event"
    },
    {
      "anonymous": false,
      "inputs": [
        {
          "indexed": true,
          "internalType": "bytes32",
          "name": "role",
          "type": "bytes32"
        },
        {
          "indexed": true,
          "internalType": "address",
          "name": "account",
          "type": "address"
        },
        {
          "indexed": true,
          "internalType": "address",
          "name": "sender",
          "type": "address"
        }
      ],
      "name": "RoleRevoked",
      "type": "event"
    },
    {
      "anonymous": false,
      "inputs": [
        {
          "indexed": true,
          "internalType": "address",
          "name": "from",
          "type": "address"
        },
        {
          "indexed": true,
          "internalType": "address",
          "name": "to",
          "type": "address"
        },
        {
          "indexed": true,
          "internalType": "uint256",
          "name": "tokenId",
          "type": "uint256"
        }
      ],
      "name": "Transfer",
      "type": "event"
    },
    {
      "anonymous": false,
      "inputs": [
        {
          "indexed": false,
          "internalType": "address",
          "name": "account",
          "type": "address"
        }
      ],
      "name": "Unpaused",
      "type": "event"
    },
    {
      "inputs": [],
      "name": "DEFAULT_ADMIN_ROLE",
      "outputs": [
        {
          "internalType": "bytes32",
          "name": "",
          "type": "bytes32"
        }
      ],
      "stateMutability": "view",
      "type": "function",
      "constant": true
    },
    {
      "inputs": [],
      "name": "MINTER_ROLE",
      "outputs": [
        {
          "internalType": "bytes32",
          "name": "",
          "type": "bytes32"
        }
      ],
      "stateMutability": "view",
      "type": "function",
      "constant": true
    },
    {
      "inputs": [],
      "name": "PAUSER_ROLE",
      "outputs": [
        {
          "internalType": "bytes32",
          "name": "",
          "type": "bytes32"
        }
      ],
      "stateMutability": "view",
      "type": "function",
      "constant": true
    },
    {
      "inputs": [],
      "name": "_tokenIds",
      "outputs": [
        {
          "internalType": "uint256",
          "name": "_value",
          "type": "uint256"
        }
      ],
      "stateMutability": "view",
      "type": "function",
      "constant": true
    },
    {
      "inputs": [
        {
          "internalType": "address",
          "name": "to",
          "type": "address"
        },
        {
          "internalType": "uint256",
          "name": "tokenId",
          "type": "uint256"
        }
      ],
      "name": "approve",
      "outputs": [],
      "stateMutability": "nonpayable",
      "type": "function"
    },
    {
      "inputs": [
        {
          "internalType": "address",
          "name": "owner",
          "type": "address"
        }
      ],
      "name": "balanceOf",
      "outputs": [
        {
          "internalType": "uint256",
          "name": "",
          "type": "uint256"
        }
      ],
      "stateMutability": "view",
      "type": "function",
      "constant": true
    },
    {
      "inputs": [
        {
          "internalType": "uint256",
          "name": "tokenId",
          "type": "uint256"
        }
      ],
      "name": "burn",
      "outputs": [],
      "stateMutability": "nonpayable",
      "type": "function"
    },
    {
      "inputs": [
        {
          "internalType": "uint256",
          "name": "tokenId",
          "type": "uint256"
        }
      ],
      "name": "getApproved",
      "outputs": [
        {
          "internalType": "address",
          "name": "",
          "type": "address"
        }
      ],
      "stateMutability": "view",
      "type": "function",
      "constant": true
    },
    {
      "inputs": [
        {
          "internalType": "bytes32",
          "name": "role",
          "type": "bytes32"
        }
      ],
      "name": "getRoleAdmin",
      "outputs": [
        {
          "internalType": "bytes32",
          "name": "",
          "type": "bytes32"
        }
      ],
      "stateMutability": "view",
      "type": "function",
      "constant": true
    },
    {
      "inputs": [
        {
          "internalType": "bytes32",
          "name": "role",
          "type": "bytes32"
        },
        {
          "internalType": "uint256",
          "name": "index",
          "type": "uint256"
        }
      ],
      "name": "getRoleMember",
      "outputs": [
        {
          "internalType": "address",
          "name": "",
          "type": "address"
        }
      ],
      "stateMutability": "view",
      "type": "function",
      "constant": true
    },
    {
      "inputs": [
        {
          "internalType": "bytes32",
          "name": "role",
          "type": "bytes32"
        }
      ],
      "name": "getRoleMemberCount",
      "outputs": [
        {
          "internalType": "uint256",
          "name": "",
          "type": "uint256"
        }
      ],
      "stateMutability": "view",
      "type": "function",
      "constant": true
    },
    {
      "inputs": [
        {
          "internalType": "bytes32",
          "name": "role",
          "type": "bytes32"
        },
        {
          "internalType": "address",
          "name": "account",
          "type": "address"
        }
      ],
      "name": "grantRole",
      "outputs": [],
      "stateMutability": "nonpayable",
      "type": "function"
    },
    {
      "inputs": [
        {
          "internalType": "bytes32",
          "name": "role",
          "type": "bytes32"
        },
        {
          "internalType": "address",
          "name": "account",
          "type": "address"
        }
      ],
      "name": "hasRole",
      "outputs": [
        {
          "internalType": "bool",
          "name": "",
          "type": "bool"
        }
      ],
      "stateMutability": "view",
      "type": "function",
      "constant": true
    },
    {
      "inputs": [
        {
          "internalType": "address",
          "name": "owner",
          "type": "address"
        },
        {
          "internalType": "address",
          "name": "operator",
          "type": "address"
        }
      ],
      "name": "isApprovedForAll",
      "outputs": [
        {
          "internalType": "bool",
          "name": "",
          "type": "bool"
        }
      ],
      "stateMutability": "view",
      "type": "function",
      "constant": true
    },
    {
      "inputs": [
        {
          "internalType": "address",
          "name": "to",
          "type": "address"
        }
      ],
      "name": "mint",
      "outputs": [],
      "stateMutability": "nonpayable",
      "type": "function"
    },
    {
      "inputs": [],
      "name": "name",
      "outputs": [
        {
          "internalType": "string",
          "name": "",
          "type": "string"
        }
      ],
      "stateMutability": "view",
      "type": "function",
      "constant": true
    },
    {
      "inputs": [
        {
          "internalType": "uint256",
          "name": "tokenId",
          "type": "uint256"
        }
      ],
      "name": "ownerOf",
      "outputs": [
        {
          "internalType": "address",
          "name": "",
          "type": "address"
        }
      ],
      "stateMutability": "view",
      "type": "function",
      "constant": true
    },
    {
      "inputs": [
        {
          "internalType": "uint256",
          "name": "",
          "type": "uint256"
        }
      ],
      "name": "parentNfts",
      "outputs": [
        {
          "internalType": "address",
          "name": "tokenAddress",
          "type": "address"
        },
        {
          "internalType": "uint256",
          "name": "tokenId",
          "type": "uint256"
        }
      ],
      "stateMutability": "view",
      "type": "function",
      "constant": true
    },
    {
      "inputs": [],
      "name": "pause",
      "outputs": [],
      "stateMutability": "nonpayable",
      "type": "function"
    },
    {
      "inputs": [],
      "name": "paused",
      "outputs": [
        {
          "internalType": "bool",
          "name": "",
          "type": "bool"
        }
      ],
      "stateMutability": "view",
      "type": "function",
      "constant": true
    },
    {
      "inputs": [],
      "name": "price",
      "outputs": [
        {
          "internalType": "uint256",
          "name": "",
          "type": "uint256"
        }
      ],
      "stateMutability": "view",
      "type": "function",
      "constant": true
    },
    {
      "inputs": [
        {
          "internalType": "bytes32",
          "name": "role",
          "type": "bytes32"
        },
        {
          "internalType": "address",
          "name": "account",
          "type": "address"
        }
      ],
      "name": "renounceRole",
      "outputs": [],
      "stateMutability": "nonpayable",
      "type": "function"
    },
    {
      "inputs": [
        {
          "internalType": "bytes32",
          "name": "role",
          "type": "bytes32"
        },
        {
          "internalType": "address",
          "name": "account",
          "type": "address"
        }
      ],
      "name": "revokeRole",
      "outputs": [],
      "stateMutability": "nonpayable",
      "type": "function"
    },
    {
      "inputs": [
        {
          "internalType": "address",
          "name": "from",
          "type": "address"
        },
        {
          "internalType": "address",
          "name": "to",
          "type": "address"
        },
        {
          "internalType": "uint256",
          "name": "tokenId",
          "type": "uint256"
        }
      ],
      "name": "safeTransferFrom",
      "outputs": [],
      "stateMutability": "nonpayable",
      "type": "function"
    },
    {
      "inputs": [
        {
          "internalType": "address",
          "name": "from",
          "type": "address"
        },
        {
          "internalType": "address",
          "name": "to",
          "type": "address"
        },
        {
          "internalType": "uint256",
          "name": "tokenId",
          "type": "uint256"
        },
        {
          "internalType": "bytes",
          "name": "_data",
          "type": "bytes"
        }
      ],
      "name": "safeTransferFrom",
      "outputs": [],
      "stateMutability": "nonpayable",
      "type": "function"
    },
    {
      "inputs": [
        {
          "internalType": "address",
          "name": "operator",
          "type": "address"
        },
        {
          "internalType": "bool",
          "name": "approved",
          "type": "bool"
        }
      ],
      "name": "setApprovalForAll",
      "outputs": [],
      "stateMutability": "nonpayable",
      "type": "function"
    },
    {
      "inputs": [
        {
          "internalType": "bytes4",
          "name": "interfaceId",
          "type": "bytes4"
        }
      ],
      "name": "supportsInterface",
      "outputs": [
        {
          "internalType": "bool",
          "name": "",
          "type": "bool"
        }
      ],
      "stateMutability": "view",
      "type": "function",
      "constant": true
    },
    {
      "inputs": [],
      "name": "symbol",
      "outputs": [
        {
          "internalType": "string",
          "name": "",
          "type": "string"
        }
      ],
      "stateMutability": "view",
      "type": "function",
      "constant": true
    },
    {
      "inputs": [
        {
          "internalType": "uint256",
          "name": "index",
          "type": "uint256"
        }
      ],
      "name": "tokenByIndex",
      "outputs": [
        {
          "internalType": "uint256",
          "name": "",
          "type": "uint256"
        }
      ],
      "stateMutability": "view",
      "type": "function",
      "constant": true
    },
    {
      "inputs": [
        {
          "internalType": "address",
          "name": "owner",
          "type": "address"
        },
        {
          "internalType": "uint256",
          "name": "index",
          "type": "uint256"
        }
      ],
      "name": "tokenOfOwnerByIndex",
      "outputs": [
        {
          "internalType": "uint256",
          "name": "",
          "type": "uint256"
        }
      ],
      "stateMutability": "view",
      "type": "function",
      "constant": true
    },
    {
      "inputs": [],
      "name": "totalSupply",
      "outputs": [
        {
          "internalType": "uint256",
          "name": "",
          "type": "uint256"
        }
      ],
      "stateMutability": "view",
      "type": "function",
      "constant": true
    },
    {
      "inputs": [
        {
          "internalType": "address",
          "name": "from",
          "type": "address"
        },
        {
          "internalType": "address",
          "name": "to",
          "type": "address"
        },
        {
          "internalType": "uint256",
          "name": "tokenId",
          "type": "uint256"
        }
      ],
      "name": "transferFrom",
      "outputs": [],
      "stateMutability": "nonpayable",
      "type": "function"
    },
    {
      "inputs": [],
      "name": "unpause",
      "outputs": [],
      "stateMutability": "nonpayable",
      "type": "function"
    },
    {
      "inputs": [
        {
          "internalType": "uint256",
          "name": "_tokenId",
          "type": "uint256"
        }
      ],
      "name": "exists",
      "outputs": [
        {
          "internalType": "bool",
          "name": "",
          "type": "bool"
        }
      ],
      "stateMutability": "view",
      "type": "function",
      "constant": true
    },
    {
      "inputs": [
        {
          "internalType": "address",
          "name": "_parentTokenAddress",
          "type": "address"
        },
        {
          "internalType": "uint256",
          "name": "_parentTokenId",
          "type": "uint256"
        }
      ],
      "name": "buy",
      "outputs": [],
      "stateMutability": "payable",
      "type": "function",
      "payable": true
    },
    {
      "inputs": [
        {
          "internalType": "uint256",
          "name": "tokenId",
          "type": "uint256"
        }
      ],
      "name": "tokenURI",
      "outputs": [
        {
          "internalType": "string",
          "name": "",
          "type": "string"
        }
      ],
      "stateMutability": "view",
      "type": "function",
      "constant": true
    },
    {
      "inputs": [
        {
          "internalType": "address",
          "name": "_nftAddress",
          "type": "address"
        },
        {
          "internalType": "bool",
          "name": "allowed",
          "type": "bool"
        }
      ],
      "name": "setAllowedNft",
      "outputs": [],
      "stateMutability": "nonpayable",
      "type": "function"
    },
    {
      "inputs": [
        {
          "internalType": "bool",
          "name": "_e",
          "type": "bool"
        }
      ],
      "name": "setIsExclusive",
      "outputs": [],
      "stateMutability": "nonpayable",
      "type": "function"
    },
    {
      "inputs": [
        {
          "internalType": "address",
          "name": "_u",
          "type": "address"
        }
      ],
      "name": "setURIRouter",
      "outputs": [],
      "stateMutability": "nonpayable",
      "type": "function"
    },
    {
      "inputs": [
        {
          "internalType": "string",
          "name": "_u",
          "type": "string"
        }
      ],
      "name": "setURIRoot",
      "outputs": [],
      "stateMutability": "nonpayable",
      "type": "function"
    },
    {
      "inputs": [
        {
          "internalType": "uint256",
          "name": "_p",
          "type": "uint256"
        }
      ],
      "name": "setPrice",
      "outputs": [],
      "stateMutability": "nonpayable",
      "type": "function"
    },
    {
      "inputs": [
        {
          "internalType": "bool",
          "name": "_hasMaxSupply",
          "type": "bool"
        },
        {
          "internalType": "uint256",
          "name": "_maxSupply",
          "type": "uint256"
        }
      ],
      "name": "setMaxSupply",
      "outputs": [],
      "stateMutability": "nonpayable",
      "type": "function"
    },
    {
      "inputs": [],
      "name": "withdrawal",
      "outputs": [],
      "stateMutability": "nonpayable",
      "type": "function"
    }
  ],
  "bytecode": "0x6701aa535d3d0c0000600f556010805460ff19169055600060115561010060405260426080818152906200341660a03980516200004591601491602090910190620003a1565b506018805460ff191660011790553480156200006057600080fd5b506040516200345838038062003458833981016040819052620000839162000447565b6040518060400160405280600d81526020016c4c46472043796265724465636b60981b8152506040518060400160405280600681526020016543594445434b60d01b81525060148054620000d79062000479565b80601f0160208091040260200160405190810160405280929190818152602001828054620001059062000479565b8015620001565780601f106200012a5761010080835404028352916020019162000156565b820191906000526020600020905b8154815290600101906020018083116200013857829003601f168201915b505085518693508592506200017491506002906020850190620003a1565b5080516200018a906003906020840190620003a1565b5050600c805460ff19169055508051620001ac90600e906020840190620003a1565b50620001ba6000336200023c565b620001e67f9f2df0fed2c77648de5860a4cc508cd0818c85b8b8a1ab4ceeef8d981c8956a6336200023c565b620002127f65d7a28e3265b37a6474929f336521b332c1681b933f6cb9f3376673440d862a336200023c565b5050601280546001600160a01b0319166001600160a01b03939093169290921790915550620004b5565b6200024882826200024c565b5050565b6200026382826200028f60201b6200171b1760201c565b60008281526001602090815260409091206200028a9183906200179f6200032f821b17901c565b505050565b6000828152602081815260408083206001600160a01b038516845290915290205460ff1662000248576000828152602081815260408083206001600160a01b03851684529091529020805460ff19166001179055620002eb3390565b6001600160a01b0316816001600160a01b0316837f2f8788117e7eff1d82e926ec794901d17c78024a50270940304540a733656f0d60405160405180910390a45050565b600062000346836001600160a01b0384166200034f565b90505b92915050565b6000818152600183016020526040812054620003985750815460018181018455600084815260208082209093018490558454848252828601909352604090209190915562000349565b50600062000349565b828054620003af9062000479565b90600052602060002090601f016020900481019282620003d357600085556200041e565b82601f10620003ee57805160ff19168380011785556200041e565b828001600101855582156200041e579182015b828111156200041e57825182559160200191906001019062000401565b506200042c92915062000430565b5090565b5b808211156200042c576000815560010162000431565b6000602082840312156200045a57600080fd5b81516001600160a01b03811681146200047257600080fd5b9392505050565b600181811c908216806200048e57607f821691505b602082108103620004af57634e487b7160e01b600052602260045260246000fd5b50919050565b612f5180620004c56000396000f3fe60806040526004361061025c5760003560e01c806370a0823111610144578063b88d4fde116100b6578063cce7ec131161007a578063cce7ec1314610739578063d4e932921461074c578063d539139314610761578063d547741f14610795578063e63ab1e9146107b5578063e985e9c5146107e957600080fd5b8063b88d4fde14610699578063c2f67603146106b9578063c6f5aad0146106d9578063c87b56dd146106f9578063ca15c8731461071957600080fd5b806395d89b411161010857806395d89b41146105c3578063a035b1fe146105d8578063a217fddf146105ee578063a22cb46514610603578063aa46a40014610623578063aadd01ab1461063a57600080fd5b806370a082311461052e5780638456cb591461054e5780639010d07c1461056357806391b7f5ed1461058357806391d14854146105a357600080fd5b80633f4ba83a116101dd5780634f558e79116101a15780634f558e79146104765780634f6ccce71461049657806358e702b1146104b65780635c975abb146104d65780636352211e146104ee5780636a6278421461050e57600080fd5b80633f4ba83a146103e15780634065d181146103f657806342842e0e1461041657806342966c681461043657806348b00d821461045657600080fd5b806323b872dd1161022457806323b872dd14610331578063248a9ca3146103515780632f2ff15d146103815780632f745c59146103a157806336568abe146103c157600080fd5b806301ffc9a71461026157806306fdde0314610296578063081812fc146102b8578063095ea7b3146102f057806318160ddd14610312575b600080fd5b34801561026d57600080fd5b5061028161027c366004612838565b610832565b60405190151581526020015b60405180910390f35b3480156102a257600080fd5b506102ab610843565b60405161028d91906128ad565b3480156102c457600080fd5b506102d86102d33660046128c0565b6108d5565b6040516001600160a01b03909116815260200161028d565b3480156102fc57600080fd5b5061031061030b3660046128ee565b61096f565b005b34801561031e57600080fd5b50600a545b60405190815260200161028d565b34801561033d57600080fd5b5061031061034c36600461291a565b610a84565b34801561035d57600080fd5b5061032361036c3660046128c0565b60009081526020819052604090206001015490565b34801561038d57600080fd5b5061031061039c36600461295b565b610ab6565b3480156103ad57600080fd5b506103236103bc3660046128ee565b610adc565b3480156103cd57600080fd5b506103106103dc36600461295b565b610b72565b3480156103ed57600080fd5b50610310610bf0565b34801561040257600080fd5b50610310610411366004612a38565b610c98565b34801561042257600080fd5b5061031061043136600461291a565b610cd2565b34801561044257600080fd5b506103106104513660046128c0565b610ced565b34801561046257600080fd5b50610310610471366004612a81565b610d67565b34801561048257600080fd5b506102816104913660046128c0565b610db0565b3480156104a257600080fd5b506103236104b13660046128c0565b610dcf565b3480156104c257600080fd5b506103106104d1366004612ab3565b610e62565b3480156104e257600080fd5b50600c5460ff16610281565b3480156104fa57600080fd5b506102d86105093660046128c0565b610e9c565b34801561051a57600080fd5b50610310610529366004612a81565b610f13565b34801561053a57600080fd5b50610323610549366004612a81565b610fcf565b34801561055a57600080fd5b50610310611056565b34801561056f57600080fd5b506102d861057e366004612ace565b6110fa565b34801561058f57600080fd5b5061031061059e3660046128c0565b611119565b3480156105af57600080fd5b506102816105be36600461295b565b611145565b3480156105cf57600080fd5b506102ab61116e565b3480156105e457600080fd5b50610323600f5481565b3480156105fa57600080fd5b50610323600081565b34801561060f57600080fd5b5061031061061e366004612af0565b61117d565b34801561062f57600080fd5b506019546103239081565b34801561064657600080fd5b5061067a6106553660046128c0565b601560205260009081526040902080546001909101546001600160a01b039091169082565b604080516001600160a01b03909316835260208301919091520161028d565b3480156106a557600080fd5b506103106106b4366004612b25565b611188565b3480156106c557600080fd5b506103106106d4366004612ba5565b6111c0565b3480156106e557600080fd5b506103106106f4366004612af0565b61125e565b34801561070557600080fd5b506102ab6107143660046128c0565b6112b0565b34801561072557600080fd5b506103236107343660046128c0565b6113a0565b6103106107473660046128ee565b6113b7565b34801561075857600080fd5b50610310611694565b34801561076d57600080fd5b506103237f9f2df0fed2c77648de5860a4cc508cd0818c85b8b8a1ab4ceeef8d981c8956a681565b3480156107a157600080fd5b506103106107b036600461295b565b6116f5565b3480156107c157600080fd5b506103237f65d7a28e3265b37a6474929f336521b332c1681b933f6cb9f3376673440d862a81565b3480156107f557600080fd5b50610281610804366004612bc1565b6001600160a01b03918216600090815260076020908152604080832093909416825291909152205460ff1690565b600061083d826117b4565b92915050565b60606002805461085290612bef565b80601f016020809104026020016040519081016040528092919081815260200182805461087e90612bef565b80156108cb5780601f106108a0576101008083540402835291602001916108cb565b820191906000526020600020905b8154815290600101906020018083116108ae57829003601f168201915b5050505050905090565b6000818152600460205260408120546001600160a01b03166109535760405162461bcd60e51b815260206004820152602c60248201527f4552433732313a20617070726f76656420717565727920666f72206e6f6e657860448201526b34b9ba32b73a103a37b5b2b760a11b60648201526084015b60405180910390fd5b506000908152600660205260409020546001600160a01b031690565b600061097a82610e9c565b9050806001600160a01b0316836001600160a01b0316036109e75760405162461bcd60e51b815260206004820152602160248201527f4552433732313a20617070726f76616c20746f2063757272656e74206f776e656044820152603960f91b606482015260840161094a565b336001600160a01b0382161480610a035750610a038133610804565b610a755760405162461bcd60e51b815260206004820152603860248201527f4552433732313a20617070726f76652063616c6c6572206973206e6f74206f7760448201527f6e6572206e6f7220617070726f76656420666f7220616c6c0000000000000000606482015260840161094a565b610a7f83836117d9565b505050565b610a8f335b82611847565b610aab5760405162461bcd60e51b815260040161094a90612c29565b610a7f83838361193e565b600082815260208190526040902060010154610ad28133611ae5565b610a7f8383611b49565b6000610ae783610fcf565b8210610b495760405162461bcd60e51b815260206004820152602b60248201527f455243373231456e756d657261626c653a206f776e657220696e646578206f7560448201526a74206f6620626f756e647360a81b606482015260840161094a565b506001600160a01b03919091166000908152600860209081526040808320938352929052205490565b6001600160a01b0381163314610be25760405162461bcd60e51b815260206004820152602f60248201527f416363657373436f6e74726f6c3a2063616e206f6e6c792072656e6f756e636560448201526e103937b632b9903337b91039b2b63360891b606482015260840161094a565b610bec8282611b6b565b5050565b610c1a7f65d7a28e3265b37a6474929f336521b332c1681b933f6cb9f3376673440d862a33611145565b610c8e576040805162461bcd60e51b81526020600482015260248101919091527f4552433732315072657365744d696e7465725061757365724175746f49643a2060448201527f6d75737420686176652070617573657220726f6c6520746f20756e7061757365606482015260840161094a565b610c96611b8d565b565b610ca3600033611145565b610cbf5760405162461bcd60e51b815260040161094a90612c7a565b8051610bec906014906020840190612789565b610a7f83838360405180602001604052806000815250611188565b610cf633610a89565b610d5b5760405162461bcd60e51b815260206004820152603060248201527f4552433732314275726e61626c653a2063616c6c6572206973206e6f74206f7760448201526f1b995c881b9bdc88185c1c1c9bdd995960821b606482015260840161094a565b610d6481611c20565b50565b610d72600033611145565b610d8e5760405162461bcd60e51b815260040161094a90612c7a565b601380546001600160a01b0319166001600160a01b0392909216919091179055565b6000818152600460205260408120546001600160a01b0316151561083d565b6000610dda600a5490565b8210610e3d5760405162461bcd60e51b815260206004820152602c60248201527f455243373231456e756d657261626c653a20676c6f62616c20696e646578206f60448201526b7574206f6620626f756e647360a01b606482015260840161094a565b600a8281548110610e5057610e50612cbf565b90600052602060002001549050919050565b610e6d600033611145565b610e895760405162461bcd60e51b815260040161094a90612c7a565b6018805460ff1916911515919091179055565b6000818152600460205260408120546001600160a01b03168061083d5760405162461bcd60e51b815260206004820152602960248201527f4552433732313a206f776e657220717565727920666f72206e6f6e657869737460448201526832b73a103a37b5b2b760b91b606482015260840161094a565b610f3d7f9f2df0fed2c77648de5860a4cc508cd0818c85b8b8a1ab4ceeef8d981c8956a633611145565b610faf5760405162461bcd60e51b815260206004820152603d60248201527f4552433732315072657365744d696e7465725061757365724175746f49643a2060448201527f6d7573742068617665206d696e74657220726f6c6520746f206d696e74000000606482015260840161094a565b610fc181610fbc600d5490565b611cc7565b610d64600d80546001019055565b60006001600160a01b03821661103a5760405162461bcd60e51b815260206004820152602a60248201527f4552433732313a2062616c616e636520717565727920666f7220746865207a65604482015269726f206164647265737360b01b606482015260840161094a565b506001600160a01b031660009081526005602052604090205490565b6110807f65d7a28e3265b37a6474929f336521b332c1681b933f6cb9f3376673440d862a33611145565b6110f25760405162461bcd60e51b815260206004820152603e60248201527f4552433732315072657365744d696e7465725061757365724175746f49643a2060448201527f6d75737420686176652070617573657220726f6c6520746f2070617573650000606482015260840161094a565b610c96611e15565b60008281526001602052604081206111129083611e90565b9392505050565b611124600033611145565b6111405760405162461bcd60e51b815260040161094a90612c7a565b600f55565b6000918252602082815260408084206001600160a01b0393909316845291905290205460ff1690565b60606003805461085290612bef565b610bec338383611e9c565b6111923383611847565b6111ae5760405162461bcd60e51b815260040161094a90612c29565b6111ba84848484611f6a565b50505050565b6111cb600033611145565b6111e75760405162461bcd60e51b815260040161094a90612c7a565b8115611247576019548110156112345760405162461bcd60e51b81526020600482015260126024820152714d617820537570706c7920746f6f206c6f7760701b604482015260640161094a565b6010805460ff1916600117905560115550565b6010805460ff191692151592909217909155601155565b611269600033611145565b6112855760405162461bcd60e51b815260040161094a90612c7a565b6001600160a01b03919091166000908152601760205260409020805460ff1916911515919091179055565b6000818152600460205260409020546060906001600160a01b031661132f5760405162461bcd60e51b815260206004820152602f60248201527f4552433732314d657461646174613a2055524920717565727920666f72206e6f60448201526e3732bc34b9ba32b73a103a37b5b2b760891b606482015260840161094a565b60135460405163c87b56dd60e01b8152600481018490526001600160a01b039091169063c87b56dd90602401600060405180830381865afa158015611378573d6000803e3d6000fd5b505050506040513d6000823e601f3d908101601f1916820160405261083d9190810190612cd5565b600081815260016020526040812061083d90611f9d565b60185460ff1615611421576001600160a01b03821660009081526017602052604090205460ff166114215760405162461bcd60e51b81526020600482015260146024820152734e4654206973206e6f74206578636c757369766560601b604482015260640161094a565b306001600160a01b038316036114795760405162461bcd60e51b815260206004820152601760248201527f54686973204e46542063616e6e6f742062652075736564000000000000000000604482015260640161094a565b600f543410156114c05760405162461bcd60e51b8152602060048201526012602482015271496e73756666696369656e742046756e647360701b604482015260640161094a565b6040516331a9108f60e11b815260048101829052829033906001600160a01b03831690636352211e90602401602060405180830381865afa158015611509573d6000803e3d6000fd5b505050506040513d601f19601f8201168201806040525081019061152d9190612d4c565b6001600160a01b0316146115835760405162461bcd60e51b815260206004820152601d60248201527f596f7520617265206e6f74206f776e6572206f662074686973204e4654000000604482015260640161094a565b6001600160a01b038316600090815260166020908152604080832085845290915290205460ff16156116015760405162461bcd60e51b815260206004820152602160248201527f4e46542068617320616c7265616479206265656e207573656420746f206d696e6044820152601d60fa1b606482015260840161094a565b600061160c60195490565b6040805180820182526001600160a01b038781168083526020808401898152600087815260158352868120955186546001600160a01b03191695169490941785555160019485015590825260168152838220888352905291909120805460ff19169091179055905061167e3382611cc7565b61168c601980546001019055565b6111ba6116bb565b61169f600033611145565b6116bb5760405162461bcd60e51b815260040161094a90612c7a565b60125460405147916001600160a01b03169082156108fc029083906000818181858888f19350505050158015610bec573d6000803e3d6000fd5b6000828152602081905260409020600101546117118133611ae5565b610a7f8383611b6b565b6117258282611145565b610bec576000828152602081815260408083206001600160a01b03851684529091529020805460ff1916600117905561175b3390565b6001600160a01b0316816001600160a01b0316837f2f8788117e7eff1d82e926ec794901d17c78024a50270940304540a733656f0d60405160405180910390a45050565b6000611112836001600160a01b038416611fa7565b60006001600160e01b0319821663780e9d6360e01b148061083d575061083d82611ff6565b600081815260066020526040902080546001600160a01b0319166001600160a01b038416908117909155819061180e82610e9c565b6001600160a01b03167f8c5be1e5ebec7d5bd14f71427d1e84f3dd0314c0f7b2291e5b200ac8c7c3b92560405160405180910390a45050565b6000818152600460205260408120546001600160a01b03166118c05760405162461bcd60e51b815260206004820152602c60248201527f4552433732313a206f70657261746f7220717565727920666f72206e6f6e657860448201526b34b9ba32b73a103a37b5b2b760a11b606482015260840161094a565b60006118cb83610e9c565b9050806001600160a01b0316846001600160a01b031614806119065750836001600160a01b03166118fb846108d5565b6001600160a01b0316145b8061193657506001600160a01b0380821660009081526007602090815260408083209388168352929052205460ff165b949350505050565b826001600160a01b031661195182610e9c565b6001600160a01b0316146119b55760405162461bcd60e51b815260206004820152602560248201527f4552433732313a207472616e736665722066726f6d20696e636f72726563742060448201526437bbb732b960d91b606482015260840161094a565b6001600160a01b038216611a175760405162461bcd60e51b8152602060048201526024808201527f4552433732313a207472616e7366657220746f20746865207a65726f206164646044820152637265737360e01b606482015260840161094a565b611a22838383612036565b611a2d6000826117d9565b6001600160a01b0383166000908152600560205260408120805460019290611a56908490612d7f565b90915550506001600160a01b0382166000908152600560205260408120805460019290611a84908490612d96565b909155505060008181526004602052604080822080546001600160a01b0319166001600160a01b0386811691821790925591518493918716917fddf252ad1be2c89b69c2b068fc378daa952ba7f163c4a11628f55a4df523b3ef91a4505050565b611aef8282611145565b610bec57611b07816001600160a01b03166014612041565b611b12836020612041565b604051602001611b23929190612dae565b60408051601f198184030181529082905262461bcd60e51b825261094a916004016128ad565b611b53828261171b565b6000828152600160205260409020610a7f908261179f565b611b7582826121dd565b6000828152600160205260409020610a7f9082612242565b600c5460ff16611bd65760405162461bcd60e51b815260206004820152601460248201527314185d5cd8589b194e881b9bdd081c185d5cd95960621b604482015260640161094a565b600c805460ff191690557f5db9ee0a495bf2e6ff9c91a7834c1ba4fdd244a5e8aa4e537bd38aeae4b073aa335b6040516001600160a01b03909116815260200160405180910390a1565b6000611c2b82610e9c565b9050611c3981600084612036565b611c446000836117d9565b6001600160a01b0381166000908152600560205260408120805460019290611c6d908490612d7f565b909155505060008281526004602052604080822080546001600160a01b0319169055518391906001600160a01b038416907fddf252ad1be2c89b69c2b068fc378daa952ba7f163c4a11628f55a4df523b3ef908390a45050565b6001600160a01b038216611d1d5760405162461bcd60e51b815260206004820181905260248201527f4552433732313a206d696e7420746f20746865207a65726f2061646472657373604482015260640161094a565b6000818152600460205260409020546001600160a01b031615611d825760405162461bcd60e51b815260206004820152601c60248201527f4552433732313a20746f6b656e20616c7265616479206d696e74656400000000604482015260640161094a565b611d8e60008383612036565b6001600160a01b0382166000908152600560205260408120805460019290611db7908490612d96565b909155505060008181526004602052604080822080546001600160a01b0319166001600160a01b03861690811790915590518392907fddf252ad1be2c89b69c2b068fc378daa952ba7f163c4a11628f55a4df523b3ef908290a45050565b600c5460ff1615611e5b5760405162461bcd60e51b815260206004820152601060248201526f14185d5cd8589b194e881c185d5cd95960821b604482015260640161094a565b600c805460ff191660011790557f62e78cea01bee320cd4e420270b5ea74000d11b0c9f74754ebdbfc544b05a258611c033390565b60006111128383612257565b816001600160a01b0316836001600160a01b031603611efd5760405162461bcd60e51b815260206004820152601960248201527f4552433732313a20617070726f766520746f2063616c6c657200000000000000604482015260640161094a565b6001600160a01b03838116600081815260076020908152604080832094871680845294825291829020805460ff191686151590811790915591519182527f17307eab39ab6107e8899845ad3d59bd9653f200f220920489ca2b5937696c31910160405180910390a3505050565b611f7584848461193e565b611f8184848484612281565b6111ba5760405162461bcd60e51b815260040161094a90612e23565b600061083d825490565b6000818152600183016020526040812054611fee5750815460018181018455600084815260208082209093018490558454848252828601909352604090209190915561083d565b50600061083d565b60006001600160e01b031982166380ac58cd60e01b148061202757506001600160e01b03198216635b5e139f60e01b145b8061083d575061083d82612382565b610a7f8383836123a7565b60606000612050836002612e75565b61205b906002612d96565b67ffffffffffffffff8111156120735761207361298b565b6040519080825280601f01601f19166020018201604052801561209d576020820181803683370190505b509050600360fc1b816000815181106120b8576120b8612cbf565b60200101906001600160f81b031916908160001a905350600f60fb1b816001815181106120e7576120e7612cbf565b60200101906001600160f81b031916908160001a905350600061210b846002612e75565b612116906001612d96565b90505b600181111561218e576f181899199a1a9b1b9c1cb0b131b232b360811b85600f166010811061214a5761214a612cbf565b1a60f81b82828151811061216057612160612cbf565b60200101906001600160f81b031916908160001a90535060049490941c9361218781612e94565b9050612119565b5083156111125760405162461bcd60e51b815260206004820181905260248201527f537472696e67733a20686578206c656e67746820696e73756666696369656e74604482015260640161094a565b6121e78282611145565b15610bec576000828152602081815260408083206001600160a01b0385168085529252808320805460ff1916905551339285917ff6391f5c32d9c69d2a47ea670b442974b53935d1edc7fd64eb21e047a839171b9190a45050565b6000611112836001600160a01b038416612419565b600082600001828154811061226e5761226e612cbf565b9060005260206000200154905092915050565b60006001600160a01b0384163b1561237757604051630a85bd0160e11b81526001600160a01b0385169063150b7a02906122c5903390899088908890600401612eab565b6020604051808303816000875af1925050508015612300575060408051601f3d908101601f191682019092526122fd91810190612ee8565b60015b61235d573d80801561232e576040519150601f19603f3d011682016040523d82523d6000602084013e612333565b606091505b5080516000036123555760405162461bcd60e51b815260040161094a90612e23565b805181602001fd5b6001600160e01b031916630a85bd0160e11b149050611936565b506001949350505050565b60006001600160e01b03198216635a05180f60e01b148061083d575061083d8261250c565b6123b2838383612541565b600c5460ff1615610a7f5760405162461bcd60e51b815260206004820152602b60248201527f4552433732315061757361626c653a20746f6b656e207472616e73666572207760448201526a1a1a5b19481c185d5cd95960aa1b606482015260840161094a565b6000818152600183016020526040812054801561250257600061243d600183612d7f565b855490915060009061245190600190612d7f565b90508181146124b657600086600001828154811061247157612471612cbf565b906000526020600020015490508087600001848154811061249457612494612cbf565b6000918252602080832090910192909255918252600188019052604090208390555b85548690806124c7576124c7612f05565b60019003818190600052602060002001600090559055856001016000868152602001908152602001600020600090556001935050505061083d565b600091505061083d565b60006001600160e01b03198216637965db0b60e01b148061083d57506301ffc9a760e01b6001600160e01b031983161461083d565b6001600160a01b03831661259c5761259781600a80546000838152600b60205260408120829055600182018355919091527fc65a7bb8d6351c1cf70c95a316cc6a92839c986682d98bc35f958f4883f9d2a80155565b6125bf565b816001600160a01b0316836001600160a01b0316146125bf576125bf83826125f9565b6001600160a01b0382166125d657610a7f81612696565b826001600160a01b0316826001600160a01b031614610a7f57610a7f8282612745565b6000600161260684610fcf565b6126109190612d7f565b600083815260096020526040902054909150808214612663576001600160a01b03841660009081526008602090815260408083208584528252808320548484528184208190558352600990915290208190555b5060009182526009602090815260408084208490556001600160a01b039094168352600881528383209183525290812055565b600a546000906126a890600190612d7f565b6000838152600b6020526040812054600a80549394509092849081106126d0576126d0612cbf565b9060005260206000200154905080600a83815481106126f1576126f1612cbf565b6000918252602080832090910192909255828152600b9091526040808220849055858252812055600a80548061272957612729612f05565b6001900381819060005260206000200160009055905550505050565b600061275083610fcf565b6001600160a01b039093166000908152600860209081526040808320868452825280832085905593825260099052919091209190915550565b82805461279590612bef565b90600052602060002090601f0160209004810192826127b757600085556127fd565b82601f106127d057805160ff19168380011785556127fd565b828001600101855582156127fd579182015b828111156127fd5782518255916020019190600101906127e2565b5061280992915061280d565b5090565b5b80821115612809576000815560010161280e565b6001600160e01b031981168114610d6457600080fd5b60006020828403121561284a57600080fd5b813561111281612822565b60005b83811015612870578181015183820152602001612858565b838111156111ba5750506000910152565b60008151808452612899816020860160208601612855565b601f01601f19169290920160200192915050565b6020815260006111126020830184612881565b6000602082840312156128d257600080fd5b5035919050565b6001600160a01b0381168114610d6457600080fd5b6000806040838503121561290157600080fd5b823561290c816128d9565b946020939093013593505050565b60008060006060848603121561292f57600080fd5b833561293a816128d9565b9250602084013561294a816128d9565b929592945050506040919091013590565b6000806040838503121561296e57600080fd5b823591506020830135612980816128d9565b809150509250929050565b634e487b7160e01b600052604160045260246000fd5b604051601f8201601f1916810167ffffffffffffffff811182821017156129ca576129ca61298b565b604052919050565b600067ffffffffffffffff8211156129ec576129ec61298b565b50601f01601f191660200190565b6000612a0d612a08846129d2565b6129a1565b9050828152838383011115612a2157600080fd5b828260208301376000602084830101529392505050565b600060208284031215612a4a57600080fd5b813567ffffffffffffffff811115612a6157600080fd5b8201601f81018413612a7257600080fd5b611936848235602084016129fa565b600060208284031215612a9357600080fd5b8135611112816128d9565b80358015158114612aae57600080fd5b919050565b600060208284031215612ac557600080fd5b61111282612a9e565b60008060408385031215612ae157600080fd5b50508035926020909101359150565b60008060408385031215612b0357600080fd5b8235612b0e816128d9565b9150612b1c60208401612a9e565b90509250929050565b60008060008060808587031215612b3b57600080fd5b8435612b46816128d9565b93506020850135612b56816128d9565b925060408501359150606085013567ffffffffffffffff811115612b7957600080fd5b8501601f81018713612b8a57600080fd5b612b99878235602084016129fa565b91505092959194509250565b60008060408385031215612bb857600080fd5b61290c83612a9e565b60008060408385031215612bd457600080fd5b8235612bdf816128d9565b91506020830135612980816128d9565b600181811c90821680612c0357607f821691505b602082108103612c2357634e487b7160e01b600052602260045260246000fd5b50919050565b60208082526031908201527f4552433732313a207472616e736665722063616c6c6572206973206e6f74206f6040820152701ddb995c881b9bdc88185c1c1c9bdd9959607a1b606082015260800190565b60208082526025908201527f596f7520646f6e27742068617665207065726d697373696f6e20746f20646f206040820152643a3434b99760d91b606082015260800190565b634e487b7160e01b600052603260045260246000fd5b600060208284031215612ce757600080fd5b815167ffffffffffffffff811115612cfe57600080fd5b8201601f81018413612d0f57600080fd5b8051612d1d612a08826129d2565b818152856020838501011115612d3257600080fd5b612d43826020830160208601612855565b95945050505050565b600060208284031215612d5e57600080fd5b8151611112816128d9565b634e487b7160e01b600052601160045260246000fd5b600082821015612d9157612d91612d69565b500390565b60008219821115612da957612da9612d69565b500190565b7f416363657373436f6e74726f6c3a206163636f756e7420000000000000000000815260008351612de6816017850160208801612855565b7001034b99036b4b9b9b4b733903937b6329607d1b6017918401918201528351612e17816028840160208801612855565b01602801949350505050565b60208082526032908201527f4552433732313a207472616e7366657220746f206e6f6e20455243373231526560408201527131b2b4bb32b91034b6b83632b6b2b73a32b960711b606082015260800190565b6000816000190483118215151615612e8f57612e8f612d69565b500290565b600081612ea357612ea3612d69565b506000190190565b6001600160a01b0385811682528416602082015260408101839052608060608201819052600090612ede90830184612881565b9695505050505050565b600060208284031215612efa57600080fd5b815161111281612822565b634e487b7160e01b600052603160045260246000fdfea26469706673582212207845ad7af491d3baa79f0b95002fa8716302329ad362c2c82dba59ac3b8eba1664736f6c634300080d0033697066733a2f2f516d62344170627a61696a4e743731535a6e33724e616961466474456b464d53637969425032747232767a3674632f64656661756c742e6a736f6e",
  "immutableReferences": {},
  "source": "pragma solidity ^0.8.12;\nimport \"@openzeppelin/contracts/token/ERC721/presets/ERC721PresetMinterPauserAutoId.sol\";\nimport \"@openzeppelin/contracts/token/ERC721/IERC721.sol\";\nimport \"@openzeppelin/contracts/utils/Strings.sol\";\n\ninterface IURIRouter {\n    function tokenURI(uint256 tokenId) external view returns (string memory);\n}\n\ncontract CyberDeck is ERC721PresetMinterPauserAutoId {\n    using Strings for uint256;\n    uint256 public price = .12 ether;\n    bool hasMaxSupply = false;\n    uint256 maxSupply = 0;\n    address payable treasury;\n    IURIRouter uriRouter;\n\n    struct ParentNFT {\n        address tokenAddress;\n        uint256 tokenId;\n    }\n\n    string URIRoot =\n        \"ipfs://Qmb4ApbzaijNt71SZn3rNaiaFdtEkFMScyiBP2tr2vz6tc/default.json\";\n\n    mapping(uint256 => ParentNFT) public parentNfts;\n    mapping(address => mapping(uint256 => bool)) mintedStatus;\n    mapping(address => bool) allowedNfts;\n    bool isExclusive = true;\n\n    using Counters for Counters.Counter;\n    Counters.Counter public _tokenIds;\n\n    constructor(address payable treasuryAddress)\n        ERC721PresetMinterPauserAutoId(\"LFG CyberDeck\", \"CYDECK\", URIRoot)\n    {\n        treasury = treasuryAddress;\n    }\n\n    function _createParentNFT(\n        address _parentTokenAddress,\n        uint256 _parentTokenId,\n        uint256 _tokenId\n    ) private {\n        parentNfts[_tokenId] = ParentNFT({\n            tokenAddress: _parentTokenAddress,\n            tokenId: _parentTokenId\n        });\n    }\n\n    function exists(uint256 _tokenId) public view returns (bool) {\n        return _exists(_tokenId);\n    }\n\n    function buy(address _parentTokenAddress, uint256 _parentTokenId)\n        public\n        payable\n    {\n        if (isExclusive) {\n            require(allowedNfts[_parentTokenAddress], \"NFT is not exclusive\");\n        }\n        require(\n            _parentTokenAddress != address(this),\n            \"This NFT cannot be used\"\n        );\n\n        require(msg.value >= price, \"Insufficient Funds\");\n\n        IERC721 _nft = IERC721(_parentTokenAddress);\n        require(\n            _nft.ownerOf(_parentTokenId) == msg.sender,\n            \"You are not owner of this NFT\"\n        );\n        require(\n            !mintedStatus[_parentTokenAddress][_parentTokenId],\n            \"NFT has already been used to mint\"\n        );\n        uint256 currentID = _tokenIds.current();\n        _createParentNFT(_parentTokenAddress, _parentTokenId, currentID);\n        mintedStatus[_parentTokenAddress][_parentTokenId] = true;\n        _mint(msg.sender, currentID);\n        _tokenIds.increment();\n        //TODO: pay guys\n        payGuys();\n    }\n\n    function tokenURI(uint256 tokenId)\n        public\n        view\n        virtual\n        override\n        returns (string memory)\n    {\n        require(\n            _exists(tokenId),\n            \"ERC721Metadata: URI query for nonexistent token\"\n        );\n\n        return uriRouter.tokenURI(tokenId);\n    }\n\n    function setAllowedNft(address _nftAddress, bool allowed) public {\n        require(\n            hasRole(DEFAULT_ADMIN_ROLE, _msgSender()),\n            \"You don't have permission to do this.\"\n        );\n        allowedNfts[_nftAddress] = allowed;\n    }\n\n    function setIsExclusive(bool _e) public {\n        require(\n            hasRole(DEFAULT_ADMIN_ROLE, _msgSender()),\n            \"You don't have permission to do this.\"\n        );\n        isExclusive = _e;\n    }\n\n    function setURIRouter(address _u) public {\n        require(\n            hasRole(DEFAULT_ADMIN_ROLE, _msgSender()),\n            \"You don't have permission to do this.\"\n        );\n        uriRouter = IURIRouter(_u);\n    }\n\n    function setURIRoot(string memory _u) public {\n        require(\n            hasRole(DEFAULT_ADMIN_ROLE, _msgSender()),\n            \"You don't have permission to do this.\"\n        );\n        URIRoot = _u;\n    }\n\n    function setPrice(uint256 _p) public {\n        require(\n            hasRole(DEFAULT_ADMIN_ROLE, _msgSender()),\n            \"You don't have permission to do this.\"\n        );\n        price = _p;\n    }\n\n    function setMaxSupply(bool _hasMaxSupply, uint256 _maxSupply) public {\n        require(\n            hasRole(DEFAULT_ADMIN_ROLE, _msgSender()),\n            \"You don't have permission to do this.\"\n        );\n        if (_hasMaxSupply) {\n            require(_maxSupply >= _tokenIds.current(), \"Max Supply too low\");\n            hasMaxSupply = true;\n            maxSupply = _maxSupply;\n        } else {\n            hasMaxSupply = _hasMaxSupply;\n            maxSupply = _maxSupply;\n        }\n    }\n\n    function payGuys() private {\n        uint256 balance = address(this).balance;\n        treasury.transfer(balance);\n    }\n\n    function withdrawal() public {\n        require(\n            hasRole(DEFAULT_ADMIN_ROLE, _msgSender()),\n            \"You don't have permission to do this.\"\n        );\n        uint256 balance = address(this).balance;\n        treasury.transfer(balance);\n    }\n}\n",
  "sourcePath": "/Users/robertrinearson/Documents/blockchain/lfg/cyberdeck-twitter/src/contracts/CyberDeck.sol",
  "compiler": {
    "name": "solc",
    "version": "0.8.13+commit.abaa5c0e.Emscripten.clang"
  },
  "schemaVersion": "3.4.3",
  "updatedAt": "2022-04-05T04:50:41.784Z",
  "networkType": "ethereum",
  "devdoc": {
    "kind": "dev",
    "methods": {
      "approve(address,uint256)": {
        "details": "See {IERC721-approve}."
      },
      "balanceOf(address)": {
        "details": "See {IERC721-balanceOf}."
      },
      "burn(uint256)": {
        "details": "Burns `tokenId`. See {ERC721-_burn}. Requirements: - The caller must own `tokenId` or be an approved operator."
      },
      "getApproved(uint256)": {
        "details": "See {IERC721-getApproved}."
      },
      "getRoleAdmin(bytes32)": {
        "details": "Returns the admin role that controls `role`. See {grantRole} and {revokeRole}. To change a role's admin, use {_setRoleAdmin}."
      },
      "getRoleMember(bytes32,uint256)": {
        "details": "Returns one of the accounts that have `role`. `index` must be a value between 0 and {getRoleMemberCount}, non-inclusive. Role bearers are not sorted in any particular way, and their ordering may change at any point. WARNING: When using {getRoleMember} and {getRoleMemberCount}, make sure you perform all queries on the same block. See the following https://forum.openzeppelin.com/t/iterating-over-elements-on-enumerableset-in-openzeppelin-contracts/2296[forum post] for more information."
      },
      "getRoleMemberCount(bytes32)": {
        "details": "Returns the number of accounts that have `role`. Can be used together with {getRoleMember} to enumerate all bearers of a role."
      },
      "grantRole(bytes32,address)": {
        "details": "Grants `role` to `account`. If `account` had not been already granted `role`, emits a {RoleGranted} event. Requirements: - the caller must have ``role``'s admin role."
      },
      "hasRole(bytes32,address)": {
        "details": "Returns `true` if `account` has been granted `role`."
      },
      "isApprovedForAll(address,address)": {
        "details": "See {IERC721-isApprovedForAll}."
      },
      "mint(address)": {
        "details": "Creates a new token for `to`. Its token ID will be automatically assigned (and available on the emitted {IERC721-Transfer} event), and the token URI autogenerated based on the base URI passed at construction. See {ERC721-_mint}. Requirements: - the caller must have the `MINTER_ROLE`."
      },
      "name()": {
        "details": "See {IERC721Metadata-name}."
      },
      "ownerOf(uint256)": {
        "details": "See {IERC721-ownerOf}."
      },
      "pause()": {
        "details": "Pauses all token transfers. See {ERC721Pausable} and {Pausable-_pause}. Requirements: - the caller must have the `PAUSER_ROLE`."
      },
      "paused()": {
        "details": "Returns true if the contract is paused, and false otherwise."
      },
      "renounceRole(bytes32,address)": {
        "details": "Revokes `role` from the calling account. Roles are often managed via {grantRole} and {revokeRole}: this function's purpose is to provide a mechanism for accounts to lose their privileges if they are compromised (such as when a trusted device is misplaced). If the calling account had been revoked `role`, emits a {RoleRevoked} event. Requirements: - the caller must be `account`."
      },
      "revokeRole(bytes32,address)": {
        "details": "Revokes `role` from `account`. If `account` had been granted `role`, emits a {RoleRevoked} event. Requirements: - the caller must have ``role``'s admin role."
      },
      "safeTransferFrom(address,address,uint256)": {
        "details": "See {IERC721-safeTransferFrom}."
      },
      "safeTransferFrom(address,address,uint256,bytes)": {
        "details": "See {IERC721-safeTransferFrom}."
      },
      "setApprovalForAll(address,bool)": {
        "details": "See {IERC721-setApprovalForAll}."
      },
      "supportsInterface(bytes4)": {
        "details": "See {IERC165-supportsInterface}."
      },
      "symbol()": {
        "details": "See {IERC721Metadata-symbol}."
      },
      "tokenByIndex(uint256)": {
        "details": "See {IERC721Enumerable-tokenByIndex}."
      },
      "tokenOfOwnerByIndex(address,uint256)": {
        "details": "See {IERC721Enumerable-tokenOfOwnerByIndex}."
      },
      "tokenURI(uint256)": {
        "details": "See {IERC721Metadata-tokenURI}."
      },
      "totalSupply()": {
        "details": "See {IERC721Enumerable-totalSupply}."
      },
      "transferFrom(address,address,uint256)": {
        "details": "See {IERC721-transferFrom}."
      },
      "unpause()": {
        "details": "Unpauses all token transfers. See {ERC721Pausable} and {Pausable-_unpause}. Requirements: - the caller must have the `PAUSER_ROLE`."
      }
    },
    "version": 1
  },
  "userdoc": {
    "kind": "user",
    "methods": {},
    "version": 1
  }
}